:020000040800F2
:10000000401100206D020008957600084166000846
:10001000296E000805040008599F00080000000030
:10002000000000000000000000000000957F0008B4
:10003000F106000800000000D1780008997F000850
:1000400089020008890200088902000800000000F7
:1000500089020008890200088902000800000000E7
:1000600089020008890200080000000089020008D7
:100070008902000889020008890200088902000834
:100080008902000889020008890200088902000824
:100090008902000889020008890200088902000814
:1000A000890200088902000889020008110A000874
:1000B00089020008890200088902000889020008F4
:1000C00089020008890200088902000889020008E4
:1000D0000000000089020008890200088902000867
:1000E00089020008890200088902000889020008C4
:1000F0008902000889020008890200080000000047
:100100000000000089020008890200088902000836
:100110008902000889020008890200088902000893
:1001200089020008890200086D9D0008799D000879
:10013000859D000800000000000000008902000802
:10014000890200080000000000000000000000001C
:10015000000000000000000089020008000000000C
:100160000000000000000000890200088902000869
:10017000000000000000000000000000000000007F
:10018000000000000000000000000000000000006F
:10019000000000000000000000000000000000005F
:1001A0000000000000000000890200088902000829
:1001B00089020008890200088902000889020008F3
:1001C0008902000889020008000000000000000009
:1001D000000000000000000000000000890200088C
:1001E000890200080000000000000000000000007C
:1001F00000000000000000000000000000000000FF
:1002000000000000890200088902000800000000C8
:10021000000000008902000800000000000000004B
:10022000000000000000000000000000890200083B
:10023000890200080000000000000000000000002B
:10024000000000000000000000000000890200081B
:100250008902000889020008DFF80CD000F08EF84F
:1002600000480047A1AB0008401100200748804724
:1002700007480047FEE7FEE7FEE7FEE7FEE7FEE78A
:10028000FEE7FEE7FEE7FEE7FEE7000075800008F8
:10029000590200082DE9F05F0546002092469B4672
:1002A00088460646814640241BE02846414647468C
:1002B000224600F053F853465A46C01A914110D3D3
:1002C00011461846224600F03AF82D1A67EB01084D
:1002D0004F4622460120002100F031F817EB0009BB
:1002E0004E41201EA4F10104DFDC484631462A4677
:1002F0004346BDE8F09F40EA01039B0703D009E0B5
:1003000008C9121F08C0042AFAD203E011F8013B01
:1003100000F8013B521EF9D27047D2B201E000F85A
:10032000012B491EFBD270470022F6E710B5134699
:100330000A4604461946FFF7F0FF204610BD202A62
:1003400004DB203A00FA02F1002070479140C2F12C
:10035000200320FA03F3194390407047202A04DB5E
:10036000203A21FA02F00021704721FA02F3D0402E
:10037000C2F1200291400843194670471CB5094854
:100380000090094801900546009C06E0E06840F0B6
:10039000010394E8070098471034AC42F6D3FFF706
:1003A0005FFF000078BB000898BB000870B58C1890
:1003B00010F8015B15F0070301D110F8013B2A1179
:1003C00006D110F8012B03E010F8016B01F8016B66
:1003D0005B1EF9D12B0705D40023521E0DD401F862
:1003E000013BFAE710F8013BCB1A921C03E013F82B
:1003F000015B01F8015B521EF9D5A142D8D3002060
:1004000070BD0000FEE7000070B540F2E035C2F2BA
:100410000005687A40F2D04601210128C2F20006A8
:10042000E97113D040F22821C2F2000109780429B1
:100430000CD140F22921C2F200010978032905D12B
:10044000012068720020286502E000BF00284AD021
:10045000688A40F6E01401306882C2F2000440F27B
:10046000EC1004F12002C2F20000214606F0DEFC8E
:10047000012838D1D6E90713B06A228E9042A1EB49
:10048000030101D891420ED2628E904201D891426E
:1004900009D2A28E904201D8914204D2E28E9042BB
:1004A00005D8914203D301222A6500226A72228F65
:1004B000904201D891421AD2628F904201D8914263
:1004C00015D2A28F904201D8914210D2E28F002320
:1004D00092B290424FF0000098BF0120914228BF95
:1004E0000123184203D1286D012818BF70BD688A06
:1004F000012100EB80000022A0F5FA70C5E912107E
:10050000F16AA5F8072081422A656A7200D170BDA0
:10051000F062BDE870400AF0C1BE00002DE9F04372
:10052000D2F800C0D0F808E0002953D0BEF1000F87
:100530004FF0000464D04FF6FC7311EA03094FF04A
:1005400000074FF0000300F0B58005684FF6FC731C
:100550002B40BEF1020F4FF0010455D34B4553D051
:100560004FF6FF7425EA040605274FF6FC7800BF16
:1005700046EA030454F82C50FC1E744505EA0805AD
:100580004ED24D454CD046EA050353F82C30BC1EE4
:10059000744503EA08031AD24B4518D046EA03040F
:1005A00054F82C507C1E744505EA080538D24D4598
:1005B00036D046EA050353F82C30774503EA0803A2
:1005C00007F1040402D24B452746D1D1043C1F4613
:1005D0002B466FE0BEF1000F1AD004684FF6FC7591
:1005E000BEF1010304EA050716D04FF6FF75AC43D0
:1005F000AEF10205032D03F0030813D230E000BF73
:100600000027002356E000BF1F46002352E000BF32
:1006100000230027002456E00124002353E000BFFC
:100620002F4647E023F003054FF6FC7644EA070324
:1006300053F82C30043D03EA060343EA040353F85D
:100640002C3003EA060343EA040353F82C3003EA90
:10065000060344EA030757F82C7007EA0607E5D1BA
:100660003D46B8F1000F24D044EA050353F82C604E
:100670004FF6FC73B8F1010F06EA030604D1744685
:1006800037462B4616E000BF44EA060555F82C50C5
:10069000B8F1020F03EA050304D174461F4633463E
:1006A00008E000BF1C4354F82C404FF6FC7504EAE8
:1006B0000507744639B14FF6FC7631408F421CBFB6
:1006C0000120BDE8F0834088946043EA004147EA96
:1006D00000435160D36053F82C1029B14FF6FC73DE
:1006E00000041940084310610020BDE8F0830000B9
:1006F000704700002DE9F04F81B040F2E039C2F2BE
:100700000009002009F15404C9F8240020460AF029
:10071000EDF958B940F2D041C2F20001B9F85400E5
:100720008969814202D2012141E000BF20460AF0DE
:10073000DDF958B940F2D041C2F20001B9F85400D5
:100740008969814202D2022131E000BF20460AF0CD
:10075000CDF958B940F2D041C2F20001B9F85400C5
:100760008969814202D2032121E000BF20460AF0BC
:10077000BDF958B940F2D041C2F20001B9F85400B5
:100780008969814202D2042111E000BF20460AF0AB
:10079000ADF9002840F08C8040F2D041C2F2000157
:1007A000B9F854008969814280F082800521D9F826
:1007B00024201044C9F8240030B1B0FBF1F001222C
:1007C000C9F82C20C9F82400D9F8301051B1D9F853
:1007D0002C0001284FF0000008BF012970D001B0A3
:1007E000BDE8F08F40F6A014C2F2000440F2EC180D
:1007F00040F2FC5A00264FF6147704F12005C2F2AD
:100800000008C2F2000A4FF0000B00BF404621462C
:100810002A4606F00BFB012840D1208EB8423ABF91
:10082000CAF8200001360020618EB9423EBFCAF8E6
:10083000241008440136A18EB9423EBFCAF82810E0
:1008400008440136E18EB9423EBFCAF82C10084474
:100850000136218FB9423EBFCAF830100844013634
:10086000618FB9423EBFCAF8341008440136A18FE7
:10087000B9423EBFCAF8381008440136E18FB94288
:100880003EBFCAF83C1008440136012E06DB40F298
:10089000D041C2F20001896A884231D8D9F83010BB
:1008A000002994D10BF1010BBBF1FF0FAED18EE704
:1008B000D9F82400052100287FF47FAF84E700BF2A
:1008C00040F2D040C2F200000122C368D9F82410DF
:1008D000C9F8202000228B4289F8042089F80620DC
:1008E000C9E90B2218BFC160C269D9F828108A4231
:1008F00018BFC1610AF0D2FC012001B0BDE8F08F41
:10090000B0FBF6F00121C9F828000020C9F830102A
:1009100089F805005BE7000040F22820C2F20000E1
:1009200001780139032988BF7047DFE801F0030728
:10093000030B00BF01218160C1607047002181600D
:10094000C1607047016940F2D0434A1CC2F2000303
:10095000DB6A02614CF6CD42CCF6CC42A3FB02230B
:10096000B1EBD30F4FF000014FF0010238BF01216E
:100970008260C1607047000072B600BFFEE70000F1
:1009800070B542F220060446C4F2020601F030F8C7
:10099000316811F00B0F20D0B4B30546601C11D1A3
:1009A000306810F00B0F18D0306810F00B0F14D017
:1009B000306810F00B0F10D0306810F00B0FEFD133
:1009C0000BE000BF01F014F8401BA04284BF0320DD
:1009D00070BD306810F00B0FF4D1306810F41E00B9
:1009E0000AD040F20021C2F200014A6802434A6084
:1009F0003061012070BD00BF3068C00344BF4FF4B8
:100A000080303061002070BD00F0F2FF032070BD27
:100A100040F25460C2F2000000F0FEBB00284FF02C
:100A2000010218BF002901D110467047B0B5D0E9C6
:100A300004C2C369D0F818E01A43C36B1A4342EAF0
:100A40000C0242EA0E020A6003789B0616D5D0E932
:100A500009C34FF07C75D0F82CE0846B05EB035391
:100A60004FF47C7505EB0C1503F07C7344EA0E041F
:100A700005F47C7523432B431A430A604268036BD9
:100A800040F2FF252A401A434A60C368B3F5007F4D
:100A900005D0B3F5806F04D10578AD0601D51A43B2
:100AA0004A60436B1A434A60436C43B1856C046CE3
:100AB00005F03F0544EA05452A431A434A60B0F869
:100AC000683040F2000C8B600278C0F2FF7C920725
:100AD00022D5C56C4FF080540CEB054505EA0C059A
:100AE0002B438B60056D04EAD5054FF000542B4471
:100AF0008B60456D04EA95054FF080442B448B6074
:100B0000856D04EA55052B448B60C56DB5F1FF3F3B
:100B1000DCBF03F100438B60036ECB60436E0B615F
:100B200003789B0702D4142323E000BF036D0CF16C
:100B3000C052002B48BF5B426FF35F334B61456D82
:100B40002C04002D48BF05FB02F422401A434A61E1
:100B5000836D0CF17844002B48BF5B429AB28A61E6
:100B6000C36D1D04002B48BF03FB04F52A431C235F
:100B70008A610022CA50006883074FF4E06358BFBF
:100B80004FF4A06318430862BDE8B04010467047B8
:100B9000B0B5044600F02CFF002C04BF0120B0BD0E
:100BA00000210546206884F84C10022184F8541076
:100BB000416941F00601416120684169C9070BD0D4
:100BC00000F016FF401B0528F6D901200322102152
:100BD000A16584F85420B0BD4FF6B072D4E90E136D
:100BE000CBF6FD7202446FF01F0505EBF2151943B9
:100BF000082D03D34FEAF212072A01D8226C1143C1
:100C0000426922F443021143416100210164626C94
:100C1000426441F24F32C4F2020290428164C164E4
:100C200001650DDC40F25031C4F20201884213D05C
:100C300040F2D031C4F2020188420DD00FE000BF73
:100C400041F2D031C4F20201884205D041F2503164
:100C5000C4F20201884202D1002141658165002170
:100C6000C167A06C012220650020A16584F8542092
:100C7000B0BD000000284FF0010318BF002A01D1C9
:100C8000184670474369012B04D1042101230161F7
:100C9000184670472DE9F04186B0036842EA010723
:100CA0000E461F43002908BF1646002B18BF1E46DC
:100CB0007740B7F5803F09D253B193F8206051B126
:100CC00091F82070BE4206D028E000BF052126E042
:100CD00029B191F8206092F82070BE421ED10227FF
:100CE000077300270761176A00247E08CFF6010406
:100CF00066F3596407F0020766F39A6407F1050585
:100D0000A3B1E9B1904601AA019506460F46FFF747
:100D100005FCE8B10620306102E000BF042101615A
:100D2000012306B0BDE8F04118467047E1B14FF627
:100D3000FC731A402243016041F82520022124E07F
:100D40004FF6FC711940214342F8251002601AE069
:100D50000399B268304691420AD1416861B14FF6B9
:100D6000FC721140214305E0026001210DE000BF4B
:100D700057F8251048F825104FF6FC7101EA0801D4
:100D8000214347F82510816801318160002301214A
:100D90000361017306B0BDE8F041184670470000DA
:100DA00000284FF0010218BF002901D110467047FA
:100DB00090F8542090F85430022B18BF052A07D120
:100DC00040218165002180F84C100120704700BF50
:100DD0000A7B022A04D101220A611046704700BF33
:100DE000026841F24F33C4F202039A4208DC40F237
:100DF0005033C4F202039A420ED040F2D03307E0DF
:100E000041F25033C4F202039A4205D041F2D0338A
:100E1000C4F202039A420DD1036D4A68812B03D1BB
:100E200022B1416700207047002AFAD004200861EF
:100E3000012070470A6892F820209207ECD5032021
:100E40000861012070470000002804BF012070479E
:100E5000016839B142684AB18A4204BF0020704734
:100E600007E000BF02210161012070474269012AA9
:100E700004D1042101610120704700BFF0B50222B6
:100E80000273002202610A6A40F2000E5308CFF694
:100E9000010E63F3596E02F00202856863F39A6EE5
:100EA000531D4FF6FC72002D01EA020C47D0012DB4
:100EB00002D1654643E000BF4FF6FF726E1EAC1EC6
:100EC00021EA0202032C06F0030401D265461EE06B
:100ED00026F003064FF6FC77654600BF154355F82C
:100EE0002350043E05EA070545EA020555F823505C
:100EF00005EA070545EA020555F8235005EA070506
:100F000045EA020555F8235005EA0705E6D1B4B1D4
:100F1000154355F823504FF6FC76012C05EA0605DB
:100F20000DD0154355F82350022C05EA060506D0CE
:100F30002A4352F823204FF6FC7402EA04054FF6C8
:100F4000FF7221EA02022A434EEA0C0741600021A7
:100F500042F823700161012101730020F0BD0000FF
:100F6000002804BF0120704780B5D0F874E0BEF1BE
:100F7000000F54D090F8541002680129D2F814C020
:100F800004D0022946D11CF4803143D090F854108B
:100F9000012935D190F84C1001294FF0020134D0CD
:100FA000012380F84C3080F854108EF80C1000218A
:100FB0008165CEF81010516941F4BA415161416E1A
:100FC00019B1516941F400715161006F18B1506954
:100FD00040F400505061DEF800000023016ACFF6B3
:100FE0000103490861F3596361F39A634FF6FF7196
:100FF00020EA010111604FF6FC7108401844D067E7
:101000005069002140F001005061BDE88040084671
:10101000704700BF40218165002180F84C100121FC
:10102000BDE8804008467047B0B5044600F0E0FCDB
:10103000002C04BF0120B0BD054694F854000228DE
:1010400024D12068416941F004014161052084F800
:10105000540000BF2168086980041FD400F0C8FC58
:10106000401B0628F6D3A06D40F01000A0650320B9
:1010700084F8540094F8500000064FF0010001D5A8
:10108000616F0873002184F84C10B0BD2020A0656A
:101090000120002184F84C10B0BD00BF4869012236
:1010A00040F002004861042084F854004FF4FE40F0
:1010B000C86084F8542094F8500000064FF00000F7
:1010C000E0D5636F1A738864002184F84C10B0BDBA
:1010D00080B190F8541002290AD1042180F85410EC
:1010E000006842F2040241691143416100207047E7
:1010F0002021816501207047024600284FF0010041
:1011000008BF7047CB0612D5136840F6FF7223EA7A
:10111000020203F57B63C3F3C41301F0110198408D
:101120001129516814BF21EA0000084350600020D3
:101130007047000070B5044600F05AFC002C04BF54
:10114000012070BD0546206840F6FF71426920EA23
:10115000010642F00601416120684169C9070BD0D0
:1011600000F046FC401B0628F6D31020A0650320A3
:1011700084F85400012070BD41F24F31C4F20201E5
:1011800088424FF000010160416101644164816463
:10119000C1640165C1670DDC40F25031C4F2020147
:1011A000884213D040F2D031C4F2020188420DD0FF
:1011B0000FE000BF41F2D031C4F20201884205D0F5
:1011C00041F25031C4F20201884202D1002141654E
:1011D000816500F57B61C1F3C4110122736802FAD5
:1011E00001F123EA010171604FF4FE41C160E16D3C
:1011F0000020C4E91800C4E91A00206700296067CC
:1012000018BFE0652065A06584F8540084F84C00A0
:1012100070BD0000806D704710B504680C23214636
:1012200004F57B6263F30B01C2F3C4120968D14079
:10123000C9074BD02169490544BF61695FEA415143
:1012400046D42169090544BF61695FEA015147D469
:101250002169C90444BF61695FEAC14148D4216979
:10126000490444BF61695FEA414149D42169890564
:1012700044BF61695FEA81514AD42169890444BF4E
:1012800061695FEA81414FD42169C90544BF616941
:101290005FEAC15164D4816DC1B101684A6942F00D
:1012A00002024A61012180F8541090F85020120681
:1012B00044BF426F1173816E0022002980F84C20D8
:1012C00008BF10BDBDE81040084700BF10BD00BFFB
:1012D0004FF48061E160816D41F001018165B0E70B
:1012E0004FF40061E160816D41F002018165AFE77B
:1012F0004FF48051E160816D41F004018165AEE7FA
:101300004FF48041E160816D41F008018165ADE7F6
:101310004FF40071E160426E002AAED0044690475F
:1013200020462468A9E700BF4FF40051E16090F81F
:10133000541004291ED16169012221F40051616118
:10134000616941F00201616180F8542090F8501009
:10135000090603D5416F0A730021A164C16EABE792
:1013600090F85010090611D4A16CD9B900F15402BB
:1013700016E000BF052180F85410026F002A3FF4E8
:1013800083AF04469047204624687DE7E16F49B962
:10139000A16C39B9012180F85410416F01F10C02A0
:1013A000012111704FF44071E160016E00220029AB
:1013B00080F84C203FF46FAF0446884720466AE728
:1013C00000284ED090F84CC0BCF1010F04BF0220A1
:1013D00070474FF0010C80F84CC090F854C0BCF13D
:1013E000010F39D110B54FF0020C80F854C04FF006
:1013F000000CC0F858C0D0F800C0D0F864E0DCF8A9
:101400004840BEF1000FC3EA0403CCF848304FF463
:10141000FE43CCF80C30CCF84C10CCF85020DCF863
:10142000141041F4BA41CCF8141005D0DCF81410B3
:1014300041F40071CCF81410006F28B1DCF81400EE
:1014400040F40050CCF81400DCF8140040F0010027
:10145000CCF81400002010BD40218165002180F8E7
:101460004C10012070470000B0B5044600F0C0FAEF
:10147000054640F23400C2F200000078611C18BF3B
:10148000044400BF00F0B4FA401BA042FAD3B0BD40
:101490002DE9F04F81B040F2002BC2F2000B9BF817
:1014A0000020012A02BF022001B0BDE8F08F0446EF
:1014B00001208BF8000000254FF47A708946CBF8A4
:1014C0000450FFF75DFA28B18BF8005001B0BDE879
:1014D000F08F00BF206848F2080220F0004142F27D
:1014E00028079142C4F20207CBF8080008D16068CF
:1014F00000F00301032937D148F2200043E000BF88
:101500004FF0FF30C9F80000D4E902603044864251
:1015100042D24FF6D77A4EF23F08C7F6FF7AB501AE
:10152000C7F6FF786068414610F00100386808BFD0
:101530006FF4FE514FF0240200EA01003860386871
:1015400008BF0AF14D022843104338604FF47A7007
:10155000FFF716FA10BBD4E9020101364035084402
:101560008642DFD300201BE0C1074FF6D771C7F6D4
:10157000FF7104D03A680A4042F028023A608007BE
:1015800004D501F151003968084338604FF47A708E
:10159000FFF7F6F905E000BF002002E0C9F800609F
:1015A000002521684FF000423B6862EA01011940C2
:1015B00039608BF8005001B0BDE8F08F42F228008E
:1015C000C4F20200016841F00101016000680121DC
:1015D00021EA0000704700002DE9F04381B040F29D
:1015E00000298046C2F20009002042F2200416467B
:1015F0000D46C4F20204C9F8040000F0F9F92168AC
:1016000011F00B0F0AD0074600F0F2F9C01BB0F53D
:101610007A7F11D8206810F00B0FF5D1206810F4F4
:101620001E000DD0D9F804100143C9F80410206140
:10163000012001B0BDE8F083032001B0BDE8F083D4
:101640002068C00344BF4FF48030206128F0004080
:101650000228C9F8088017D1A06840F00200A060F5
:10166000EFF3108072B63168296071686960B16803
:10167000A960F168E96080F3108800F0B9F9216889
:1016800011F00B0F0CD117E0A06840F00200A06031
:101690003088288000F0ACF9216811F00B0F0BD0D6
:1016A000054600BF00F0A4F9401BB0F57A7F0FD8C3
:1016B000206810F00B0FF5D1206810F41E0109D03E
:1016C000D9F804000843C9F80400012009E000BF6C
:1016D000032007E02068C0034FF0000002D54FF45C
:1016E000803121614FF02041A26861EA0801114078
:1016F000A16001B0BDE8F08342F20400C4F2020030
:10170000416AC90704BF0020704740F22311C4F2A8
:101710006751016048F6AB11CCF6EF510160406AA9
:1017200000F0010070470000002908BF70472DE954
:10173000F04F82B047F67F72C0F22F0202EA902289
:101740004FF0000C019200F1200200270025002438
:1017500000922BE00368032202FA07F943EA090327
:1017600003606FF0030202EA5403009E0CF01C0EAB
:1017700056F803800F2202FA0EF228EA0202F25013
:10178000826822EA09028260426822EA0B02426011
:10179000C26822EA0902C260013431FA04F205F19A
:1017A000080507F102070CF1040C3BD0012202FAF4
:1017B00004FB1BEA0109EFD042F20002C4F202422C
:1017C00002F1600824F0030605F0180A0F2258F809
:1017D000066002FA0AFE019A06EA0E0602FA0AF307
:1017E0009E42B7D142F20002C4F20242D2F88030E7
:1017F000A60823EA0903C2F88030D2F8843023EA2D
:101800000903C2F88430136823EA0903136053689C
:1018100023EA0903536058F8263023EA0E0348F8F8
:10182000263097E702B0BDE8F04F70472DE9F04F42
:1018300083B00D68002D00F0C38047F67F7300F180
:101840002002C0F22F03029203EA902200234FF0FD
:10185000010A0027002400260092019010E000BF3A
:10186000BCF1030F5BD100BF0D68013635FA06F2FB
:1018700004F1040407F1020703F1080300F0A0805B
:101880000AFA06F815EA080BEED0D1F804C04CF0BD
:101890001002122A1ED16FF0030202EA560A029ABF
:1018A000584652F80AC0D1F810E0934604F01C05DF
:1018B0000F2202FA05F90EF00F022CEA090CAA40D9
:1018C00042EA0C024BF80A2083460198D1F804C082
:1018D0004FF0010A02680325BD406FEA0509AA43DB
:1018E0000CF00305BD402A43BCF1120F026016D86C
:1018F0000AFA0CF212F0061FB2D08268CD6802EA32
:101900000902BD402A43826042684FEA1C1522EA60
:101910000802B5402A43BCF1030F4260A4D0C2685C
:101920008D6802EA0902BD402A435FEACC05C26025
:101930009AD542F2000826F00302C4F2024808EBEE
:10194000020EDEF860C003F018050F22AA402CEA50
:10195000020C009A02FA05F54CEA0502CEF8602066
:10196000D8F800C0D1F804E04CEA0B025FEACE25BB
:1019700058BF2CEA0B02C8F80020D8F804C05FEA70
:101980008E224CEA0B0558BF2CEA0B05C8F8045010
:10199000D8F884C05FEA8E324CEA0B0558BF2CEAB7
:1019A0000B05C8F88450D8F880C05FEACE324CEA04
:1019B0000B0558BF2CEA0B05C8F8805054E700BF50
:1019C00003B0BDE8F08F00000069084018BF012097
:1019D00070470000426902EA0103914341EA034172
:1019E000816170471823002A08BF2823C15070471F
:1019F00040F63C50C2F200000068704790F8412069
:101A0000202A03D190F84020012A01D102207047FA
:101A1000242280F841200268136823F00103136038
:101A2000136823F48053136013681943116011681D
:101A300041F001011160202180F84110002180F85F
:101A4000401000207047000090F84120202A03D168
:101A500090F84020012A01D102207047242280F80A
:101A600041200268136823F001031360136823F414
:101A7000706343EA01211160116841F001011160B6
:101A8000202180F84110002180F84010002070478C
:101A9000002804BF0120704710B590F8411031B9FB
:101AA000002180F84010044600F084FA20462421EA
:101AB00080F8411090E81210C3680A68012B22F0E8
:101AC00001020A6024F070620A618A6822F400420E
:101AD0008A6003D14CF400428A6009E04CF404426D
:101AE000022B8A6004D14A6842F4006203E000BF1E
:101AF0004A6822F400624A604A6800F1100442F029
:101B0000007242F400424A60CA6822F40042CA608D
:101B10001CCC1A4342EA0422C369CA60026A1A430F
:101B20000A600A6842F001020A6000212022416432
:101B300080F84120016380F84210002010BD0000B1
:101B40002DE9F04F81B0044690F84100202807D1DC
:101B50000A9F4FB10B9E3EB194F8400001280BD173
:101B6000022001B0BDE8F08F4FF4007060640120E6
:101B700001B0BDE8F08F00BF01209A4690468B4629
:101B800084F84000FFF734FF216805468A69120493
:101B90004BD422200C9A84F8410040204FF00009D9
:101BA00084F84200C4F8449067626685C4F83490B3
:101BB000584617466FF39F205FFA8AF24B6849F642
:101BC0000006CFF60046834640EA024003EA0602DA
:101BD000104400F500504860204639462A4604F07B
:101BE0009BFEC0B92068BAF1010F09D04FEA182155
:101BF0008162204639462A4604F08EFE58B9206894
:101C00005FFA88F181622046402100223B46009520
:101C100004F0C8FD50B384F84090012001B0BDE845
:101C2000F08F00BF88690004B3D5204619212A46E9
:101C300004F008FD00289AD1FFF7DAFE401B216866
:101C40001A28EFD388690004ECD5606C40F02000BE
:101C50006064202084F84100002084F8420084F869
:101C60004000012001B0BDE8F08F00BF608D40F260
:101C7000000ABC46B0F5807FC0F2FF1A08D3206886
:101C80000AF5105350F8041F01EA0602FF2109E08B
:101C9000618D2068CBB250F8042F324042EA0342F3
:101CA0000AF592331A4342EA0B020BF100784FF027
:101CB000FF0906F580666746026021850CE000BFDB
:101CC000608D21682085C0B24A6848EA00403240F1
:101CD00010434860608DA8B32046042100223B4693
:101CE000009504F05FFD00287FF441AF2068616A31
:101CF000406A0870606A218D01306062481E20854C
:101D0000618D01396185618D0029E3D00004E1D145
:101D10002046802100223B46009504F043FD002828
:101D20007FF425AF608DB0F5807FC9D32068A4F81B
:101D300028904168314041EA0B0141EA0A014160C3
:101D4000C8E700BF204639462A4604F0A7FD002810
:101D50007FF40DAF20682021C16142684EF6000378
:101D6000CFF600631A404260002084F8411084F8E6
:101D7000420084F8400001B0BDE8F08F2DE9F04F3B
:101D800081B0044690F84100202807D10A9F4FB146
:101D90000B9E3EB194F8400001280BD1022001B007
:101DA000BDE8F08F4FF400706064012001B0BDE821
:101DB000F08F00BF01209A4691468B4684F8400080
:101DC000FFF716FE216805468A6912044DD42120CA
:101DD00084F8410040200C9A84F842004FF000083B
:101DE0006FF39F2B5FFA8AF0C4F8448067626685C0
:101DF000C4F834805F464BEA004049F6004B164673
:101E0000CFF6004B4A68ABF580631A40104440F0AF
:101E1000807040F400504860204631462A4604F065
:101E20007BFDC0B92068BAF1010F09D04FEA192132
:101E30008162204631462A4604F06EFD58B920687A
:101E40005FFA89F1816220468021002233460095A5
:101E500004F0A8FC50B384F84080012001B0BDE834
:101E6000F08F00BF88690004B1D5204619212A46A9
:101E700004F0E8FB002898D1FFF7BAFD401B216869
:101E80001A28EFD388690004ECD5606C40F020007C
:101E90006064202084F84100002084F8420084F827
:101EA0004000012001B0BDE8F08F00BF608D40F21E
:101EB0000009B446B0F5807FC0F2FF1908D320684E
:101EC0004B4650F8041F01EA0B02FF210BE000BF54
:101ED000618D2068CBB250F8042F02EA0B0242EA6F
:101EE00003424FF000731A433A4307F1007A4FF070
:101EF000FF086646026021850DE000BF608D216805
:101F00002085C0B24A684AEA004002EA0B02104348
:101F10004860608D90B3204631462A4604F0FCFCB0
:101F200000287FF442AF606A226810F8011B9162BA
:101F30006062608D01386085208D01382085618D5B
:101F40000029E6D00004E4D1204680210022334657
:101F5000009504F027FC00287FF427AF608DB0F5D2
:101F6000807FCBD32068A4F82880416801EA0B0168
:101F7000394341EA09014160CBE700BF20463146C1
:101F80002A4604F08BFC00287FF40FAF2068202144
:101F9000C16142684EF60003CFF600631A4042600A
:101FA000002084F8411084F8420084F8400001B019
:101FB000BDE8F08FB0B5AAB0044602A800250830ED
:101FC00080212995CDE92755CDE92555FEF7ACF9B6
:101FD000206845F20041C4F20001884202D02AB0D4
:101FE000B0BD00BF4FF40050029002A8039500F06E
:101FF000E9FE002818BFFEF7BFFC40F68C44C4F28F
:102000000244206825A940F002002060206800F00A
:10201000020001900198C0202590122026900020F7
:10202000CDE927000420299040F20040C4F20220AC
:10203000FFF7FCFB206940F400102061206900F4E8
:102040000010019001982AB0B0BD000040F200419C
:10205000C4F203010A68D2071CBF012070470A6856
:1020600022F004021043086000207047B0B540F22F
:102070000045C4F203050220E860286820F0010052
:102080002860FFF7B5FC2968C90701D10020B0BD61
:10209000044607E02868C0071CBF0320B0BD2868BD
:1020A000C007F3D0FFF7A4FC001B0228F2D2F6E72A
:1020B00040F20041C4F20301086840F00102002030
:1020C0000A607047002804BF01207047B0B504467D
:1020D00000F048F894E807004CF6CC43036045F262
:1020E0005553036041608260FFF782FC2168CA6833
:1020F000920727D4206940F44042002808BF4FF4DB
:1021000080424A61FFF774FC2168CA6812070FD049
:10211000054602E0C86800070AD0FFF769FC401BCB
:1021200021682228F6D3C8680007F3D018E000BF62
:102130000A69E068824206BF4AF6AA200860086180
:102140000020B0BD054602E0C8688007D2D5FFF781
:102150004FFC401B21682228F6D3C8688007F3D5BE
:102160000320B0BD7047000001684AF6AA22002093
:102170000A60704740F2340040F63C51C2F2000061
:10218000C2F2000100780A6810440860704700003D
:1021900080B5032000F0CCF801F018FB40F6204198
:1021A000C4F2024109684BF6381201F00F01C0F683
:1021B0000002515CC84040F2D001C2F20001086048
:1021C000042001F07FFF0F2000F008F800281CBF5A
:1021D000012080BD00F056F8002080BDB0B540F26F
:1021E0003405C2F200052978E1B304464EF210002E
:1021F000CEF200000068400710D401F0F1FF022881
:1022000024D001281AD078BB40F2D000C2F20000DE
:10221000006829784FF4FA5207E000BF40F2D0007E
:10222000C2F2000000684FF47A72B2FBF1F1B0FB29
:10223000F1F001F0C3FFA8B91BE000BF28784FF40C
:102240007A71B1FBF0F04FF4FA4106E028784FF4D0
:102250007A71B1FBF0F04FF40041B1FBF0F001F006
:10226000ADFF30B10120B0BD002001F0A7FF002874
:10227000F8D14FF0FF302146002200F02DF8002069
:102280006C60B0BD70470000002848BF704700F088
:102290001F010122C0F34A1002FA01F14EF280122E
:1022A000CEF2000242F82010BFF34F8FBFF36F8FC2
:1022B00070470000002848BF704700F01F0101224E
:1022C000C0F34A1002FA01F14EF20012CEF20002FF
:1022D00042F820107047000010B54EF60C5CCEF2AC
:1022E000000CDCF80030C3F3022E8EF00704042C3F
:1022F00028BF0424BEF103034FF0FF3E38BF002384
:102300000EFA04F4A14399400EFA03F39A431143E1
:1023100000F00F0200F160430901043A03F5644341
:102320006244002848BF02F10C03197010BD000080
:102330004EF60C51CEF200010A684FF6FF031A4028
:1023400060F30A2242F0806040F0FD700860704740
:1023500007F004FE10B540F6284CC4F2024CDCF83D
:102360000C20DCF800E0DCF80010C1F30523DCF8F9
:102370000010DCF81040002B3CD0E408C90604EA49
:10238000E1716FF35F3100EE101A0EF003016FF38D
:102390005F22B8EE400ADFE801F00303333900BFE3
:1023A0005CF8281C49F20004C1F3C101C0F2D0342A
:1023B00024FA01F101EE101A02EE103AB8EE411AB9
:1023C000B8EE422A9FED493A81EE021A02EE102A37
:1023D00020EE030AB8EE422A30EE020AB7EE002AD7
:1023E00030EE020A20EE010A5CF8281C89012DD586
:1023F00028E000BF0021C0E90011816010BD00BFCE
:1024000001EE103A9FED3B2A04E000BF01EE103AC6
:102410009FED372AB8EE411A82EE011A02EE102A19
:102420009FED323AB8EE422A20EE030A30EE020A5D
:10243000B7EE002A30EE020A21EE000A5CF8281CF2
:10244000890103D5DCF80010C90307D4002101601D
:102450005CF8281C890115D418E000BFDCF80C10CA
:10246000C1F34621013101EE101AB8EE411A80EE97
:10247000011ABCEEC11A11EE101A01605CF8281C9A
:10248000890103D5DCF80010890301D400210EE096
:10249000DCF80C10C1F30641013101EE101AB8EE60
:1024A000411A80EE011ABCEEC11A11EE101A4160F9
:1024B0005CF8281C890144BFDCF800105FEA413158
:1024C00002D40021816010BDDCF80C10C1F306615C
:1024D000013101EE101AB8EE411A80EE010ABCEE8D
:1024E000C00A10EE101A816010BD00BF0000003954
:1024F00020BCBE4B0024744A10B540F62C4CC4F2EC
:10250000024CDCF81020DCF800E0DCF80010C1F32D
:102510000523DCF80010DCF81440002B3CD0E40864
:10252000C90604EAE1716FF35F3100EE101A0EF094
:1025300003016FF35F22B8EE400ADFE801F0030306
:10254000333900BF5CF82C1C49F20004C1F3C1010F
:10255000C0F2D03424FA01F101EE101A02EE103A62
:10256000B8EE411AB8EE422A9FED493A81EE021ABE
:1025700002EE102A20EE030AB8EE422A30EE020ADA
:10258000B7EE002A30EE020A20EE010A5CF82C1C9D
:1025900009012DD528E000BF0021C0E900118160AC
:1025A00010BD00BF01EE103A9FED3B2A04E000BFD2
:1025B00001EE103A9FED372AB8EE411A82EE011A69
:1025C00002EE102A9FED323AB8EE422A20EE030ABC
:1025D00030EE020AB7EE002A30EE020A21EE000ABF
:1025E0005CF82C1C090103D5DCF80010C90307D4E2
:1025F000002101605CF82C1C090115D418E000BF13
:10260000DCF81010C1F34621013101EE101AB8EECA
:10261000411A80EE011ABCEEC11A11EE101A0160C7
:102620005CF82C1C090103D5DCF80010890301D4E7
:1026300000210EE0DCF81010C1F30641013101EE7B
:10264000101AB8EE411A80EE011ABCEEC11A11EE52
:10265000101A41605CF82C1C090144BFDCF8001022
:102660005FEA413102D40021816010BDDCF8101016
:10267000C1F30661013101EE101AB8EE411A80EE85
:10268000010ABCEEC00A10EE101A816010BD00BF36
:102690000000003920BCBE4B0024744A80B584B0D1
:1026A0004FF6FF730246C0F21F0300209B1A70EB27
:1026B000010333DA6FF060439B1A70EB0103C0F241
:1026C0006D806FF07C439B1A4FF000038B4180F2CA
:1026D0001D8182F080630B4300F02C8282F0006346
:1026E0000B4300F0E98182F08052114340F08C826C
:1026F00040F60041C4F20241D1F8E000C0F3C2024A
:10270000042A00F2DD8248F20000C0F2BB00DFE8DC
:1027100012F0CB027702D7027B027D0241F6FF73F3
:102720009B1A70EB01035FDA4FF6FF739B1A4FF0B1
:1027300000038B4180F2BA8082F480330B4300F0B7
:102740009F8182F400330B4300F0808182F4802269
:10275000114340F0598240F60041C4F20241D1F8E1
:10276000DC00C0F302320020052A00F24D82DFE8CF
:1027700012F0DB0147024B02B102B902070000BFB1
:10278000D1F8E8200B6808689B0702F0404240F14E
:102790004882002A00F0EF8243E200BF0F2940F395
:1027A000F58081F01003134300F0DA8181F40073A7
:1027B000134300F0978181F48051114340F024824B
:1027C00040F60041C4F20241D1F8E40000F040605C
:1027D000B0F1806F00F0FA81002800F04B810A68A8
:1027E000B0F1006F5DE100BFD2F103034FF00003D1
:1027F0008B412DDB82F001030B4300F0E78082F078
:102800000202114340F0008240F60040C4F2024050
:10281000D0F8D81011F0380100F08681026808293C
:1028200003D112F0006240F0458203680268182963
:1028300003D113F0020340F00581202903D112F4E3
:10284000007240F0A982D0F8F0002829B2E200BF5F
:1028500082F004030B4300F0DB8082F480521143CA
:1028600040F0D28140F60040C4F20240D0F8E010BF
:1028700001F0E061B1F1807F00F01C82002900F0DE
:10288000F98003680268B1F1407F03D113F00203BD
:1028900040F0D880B1F1806F03D112F4007240F0A3
:1028A0007B82D0F8F000B1F1A06F83E282F4005394
:1028B0000B4300F02B8182F48042114340F0A4814D
:1028C00040F60040C4F20240D0F8E41001F4402188
:1028D000B1F5802F00F07A81002900F0258102688F
:1028E0000068B1F5002F03D112F0020240F04382DC
:1028F00010F400701CBF40F60010C0F23D00B1F5AE
:10290000402F18BF002004B080BD00BF82F4001328
:102910000B4300F0458182F00072114340F0748156
:1029200040F60041C4F20241D1F8F000D1F8F020A5
:10293000920700F4407203D5B2F5807F00F0E28088
:10294000D1F8F000000106D5B2F5007F02BF4FF4C8
:10295000FA4004B080BD086880034FF0000040F1E9
:102960005381B2F5407F40F04F81C86910F4785F21
:1029700000F0A681C86947F64001C0F30520C0F207
:102980007D11B1FBF0F004B080BD00BF82F00053B8
:102990000B4300F0218181F00401114340F03481A8
:1029A00040F60040C4F20240D0F8E810006880030E
:1029B00001F4407040F17281002840F06F8147F6C9
:1029C0004000C0F27D1004B080BD00BF40F6004062
:1029D000C4F20240D0F8D81011F0070100F0748161
:1029E0000268012903D112F0006240F0638103689C
:1029F0000268032902D113F0020323D1042903D171
:102A000012F4007240F0C881D0F8F0000529D1E13D
:102A100040F60040C4F20240D0F8D81011F4E07142
:102A200000F082800268402903D112F0006240F079
:102A3000418103680268C02940F0A88113F00203B5
:102A400000F0A481C2F3C10097E100BF40F600414D
:102A5000C4F20241D1F8DC00C0F302220020052AB2
:102A600000F2D280DFE812F00600CC00D000360180
:102A70003E017E0104B0BDE8804000F083BE00BF8F
:102A800040F60041C4F20241D1F8E40000F0407089
:102A9000B0F1807F00F09A80002845D00A68B0F13C
:102AA000007F4FF0000040F0AF8012F0020200F013
:102AB000AB8008685FE100BF40F60041C4F202410C
:102AC000D1F8E00000F00702042A00F2F98048F291
:102AD0000000C0F2BB00DFE812F0E7009300F30053
:102AE0009700990040F60041C4F20241D1F8E80095
:102AF000D1F8F02000F00800920740F1A5800028EE
:102B000040F0A2804FF4004004B080BD40F6004089
:102B1000C4F20240D0F8E41001F44031B1F5803F36
:102B200054D0002940F0E88004B0BDE8804000F0B7
:102B3000E1BD00BF40F60040C4F20240D0F8E8100A
:102B4000026801F03001920440F18C80002940F0CD
:102B5000898046F60040C0F2DC2004B080BD00BF92
:102B600040F60040C4F20240D0F8E41001F0300119
:102B7000102900F099800268202903D112F0006228
:102B800040F09880006810F400501CBF46F60040EA
:102B9000C0F2DC20302918BF002004B080BD00BF87
:102BA00040F60040C4F20240D0F8E81001F00701FE
:102BB00002290BD0012900F0B580002940F0B8802F
:102BC00004B0BDE8804000F07DBD00BF01A8FFF764
:102BD00093FC039804B080BD40F60041C4F202416A
:102BE000D1F8E000C0F38212042A69D848F200004C
:102BF000C0F2BB00DFE802F0580464080A0000BF1E
:102C000001A8FFF779FC019804B080BDD1F8E82055
:102C10000B6808689B0702F0404202D5002A00F0CA
:102C2000AA80800503D5B2F1804F00F0B580086816
:102C3000B2F1004F00F400314FF0000004BF47F63E
:102C40004000C0F27D1007E0D1F8F010002818BF56
:102C50004FF4FA4001F00061002908BF084604B0B3
:102C600080BD00BF0268920101D510291CD0D0F8A8
:102C7000F020920702D520293FF444AFD0F8F000AD
:102C8000302900F000624FF0000008BF4FF4FA4016
:102C9000002A08BF104604B080BD00BFB0F5007F19
:102CA00008D0B0F5807F0BD101A8FFF753FB029845
:102CB00004B080BD01A8FFF71FFC029804B080BDDE
:102CC000002004B080BD00BF04B0BDE8804000F02B
:102CD00035BD00BFD1F8F0004FF4004101EA80306B
:102CE00004B080BDD1F8F0004FF4FA41000101EAD0
:102CF000E07004B080BD00BF02680068B1F5003F1D
:102D000002D112F0020236D110F400701CBF40F65E
:102D10000010C0F23D00B1F5403F18BF002004B0E4
:102D200080BD00BF04B0BDE8804000F04FBD00BFD3
:102D30000268032903D112F400327FF440AE026826
:102D40000068042902D112F0020214D110F40070BC
:102D50001CBF40F60010C0F23D00052918BF00203E
:102D600004B080BDD1F8E8200B6808689B0702F02A
:102D7000404217D5B2B9C0F3C10049F20001C0F218
:102D8000D03121FA00F004B080BD00BFB1F5807FE2
:102D90000CD112F4007209D040F60010C0F23D00D0
:102DA00004B080BD80053FF53EAF40E7D0F8F000AD
:102DB000B1F5A07F00F002024FF0000008BF9003C1
:102DC00004B080BD2DE9F0470446006840F628486D
:102DD000C101C4F2024807D5D8F8C010226B21F017
:102DE00040411143C8F8C010C00714D0606BC11E29
:102DF000032909D340B1012814D104F1080004F0DB
:102E0000E5FF054640B9606BD8F8B01021F0070126
:102E10000843C8F8B00000252078800706D428466B
:102E200021E000BF012520788007F8D5A16B6FF065
:102E3000020000EBF1000328284609D34FEAF10114
:102E4000284629B101292FD104F1080004F0BEFF62
:102E5000064648B9D8F8B000A16B20F03800084306
:102E6000C8F8B00000202E462178490721D5E16B33
:102E70006FF0020202EBB112032A08D34FEAB1113C
:102E800029B1012936D104F1080004F09FFF05465D
:102E900080B9D8F8B000E16B20F4E0700843C8F8BE
:102EA000B000002005E000BF01200126217849077D
:102EB000DDD435466178C90621D5216C6FF0020258
:102EC00002EB3162032A08D34FEA316129B10129AB
:102ED0003CD104F1080004F079FF064680B9D8F827
:102EE000B800216C20F0E0600843C8F8B80000206A
:102EF00005E000BF012001256178C906DDD42E461A
:102F00006178890627D5616C6FF0010202EB3142CE
:102F1000022A08D34FEA314129B1012910D104F125
:102F2000080004F053FF054660B9D8F8BC00616C96
:102F300020F440300843C8F8BC0000200BE000BF7C
:102F4000012001256178490609D423E001200126EA
:102F500061788906D7D43546617849061AD5A16CBF
:102F60006FF0010202EBB142022A08D34FEAB141ED
:102F700029B101292ED104F1080004F027FF0646EB
:102F800048B9D8F8BC00A16C20F440200843C8F828
:102F9000BC0000202E46A178C90720D0E16C002992
:102FA00018BFB1F1007F0BD10746C8B9D8F8BC00F3
:102FB000E16C20F040700843C8F8BC0000200EE02F
:102FC000B1F1807F2CD104F1080004F0FFFE074628
:102FD00030B9EBE701200126A178C907DED13746D9
:102FE0006179C90621D5216D002918BFB1F1006FA3
:102FF0000CD10546D0B9D8F8BC00216D20F0406056
:103000000843C8F8BC0000200FE000BFB1F1806F9A
:103010005AD104F1080004F0D9FE054630B9EAE7B8
:10302000012001276179C906DDD43D46D4E90012AB
:1030300040F61C47C4F20247120508D53A6822F44C
:1030400000423A60D4F880203B681A433A60890312
:103050001AD5616D6FF0020202EB3122032A08D308
:103060004FEA312129B1012932D104F1080004F0DD
:10307000ADFE064648B9D8F8B400616D20F4E060B2
:103080000843C8F8B40000202E46A178490724D58B
:10309000A16D6FF0020202EB3132032A08D34FEA2E
:1030A000313129B1012929D104F1080004F08EFE43
:1030B000054698B9D8F8B400A16D20F4E040084363
:1030C000C8F8B400002008E001200125AEE700BFE9
:1030D00001200126A1784907DAD43546A17889066E
:1030E00022D5616E05293BD802290DD0024690B148
:1030F000D4E900139B051CD438E000BF0120012552
:10310000A1788906EDD40FE004F1080004F05EFE1A
:1031100000280246ECD1D8F8C000616E20F007000C
:103120000843C8F8C00000202A46D4E900139B05D4
:103130001CD5A36E43F00806082E0BD1814660B95A
:10314000D8F8C00020F008001843C8F8C0000020DC
:103150000CE000BF01204FF00109890109D462E0B1
:1031600001200122D4E900139B05E2D49146890194
:1031700059D54FF60846CFF6FF768246B85940F04B
:103180000100B851FEF734FC054600BFB859C0072E
:1031900008D1FEF72DFC401B0228F7D9032003219C
:1031A00042E000BF5046BAF1000F51463CD1D8F87A
:1031B000C80010F4407017D0A16F884211D0D8F821
:1031C000C800D8F8C81020F4407041F48031C8F825
:1031D000C810D8F8C81021F48031C8F8C810C8F851
:1031E000C800C00740F02A81A06F39684FF6CF733E
:1031F00000F4407221F47C51C0F2FF0303EA101383
:10320000B2F5407F08BF19433960D8F8C8106FF392
:103210001F3021F44071C8F8C810D8F8C81008430E
:10322000C8F8C80000204946226853011BD5236E08
:103230006FF0010707EB3317022F0AD34FEA33175A
:103240003FB1012F34D1D8F8007047F40037C8F8E7
:103250000070064640B9D8F8C00020F0300018438E
:10326000C8F8C00000200E46110125D5E16ECA1E27
:10327000022A09D3012913D0002949D1D8F8001016
:1032800041F40031C8F800100546B0B9D8F8B800CC
:10329000E16E20F007000843C8F8B80000200BE0FA
:1032A00004F1080004F092FD054630B9EEE700BFD6
:1032B000012001261101D9D43546E178C9062CD563
:1032C000216F6FF0020202EBF102022A0BD34FEAE8
:1032D000F101012914D000294AD1D8F8001041F495
:1032E0000031C8F800100646C0B9D8F8B800216F00
:1032F00020F038000843C8F8B80000200DE000BFF7
:1033000004F1080004F062FD064638B9EDE700BF9D
:1033100001200125E178C906D2D42E46E17889063C
:103320002BD5616F6FF0020202EBB112022A0BD3B0
:103330004FEAB111012913D0002951D1D8F800105A
:1033400041F40031C8F800100546B8B9D8F8B80003
:10335000616F20F4E0700843C8F8B80000200CE06A
:1033600004F1080004F032FD054638B9EEE700BF6D
:1033700001200126E1788906D3D435462179490711
:1033800033D5E16D59B1B1F5007F11D0B1F5807F32
:1033900020D1D8F8001041F40031C8F800100646DA
:1033A00068B12179C90624D43046BDE8F08700BF52
:1033B00004F1080004F00AFD00280646F1D1D8F80F
:1033C000C000E16D20F440700843C8F8C000002040
:1033D0000BE000BF012001262179C906E4D508E0F1
:1033E0000120012521794907CBD42E462179C90630
:1033F000DAD5E16F302911D020290BD010291CBF5C
:103400000120BDE8F087D8F8001041F40031C8F879
:10341000001003E004F1080004F0D8FC002818BFF5
:10342000BDE8F087D8F8BC00E16F20F03000084319
:10343000C8F8BC003046BDE8F08700BFFEF7D8FAF8
:10344000054641F2883600BFD8F8C80080073FF52E
:10345000CBAEFEF7CDFA411B0320B1424FF0030182
:10346000F2D9E1E62DE9F04381B0002800F0D080E8
:1034700042F20008C4F202080446D8F800000D46E3
:1034800000F00F0081420DD9D8F8000020F00F00A5
:103490002843C8F80000D8F8000000F00F00A84248
:1034A00040F0B680206840F62047C106C4F20247CB
:1034B0000CD561693A68702303EA1222914205D95A
:1034C0003A6822F4E04242EA0121396001070CD552
:1034D00021693A68702303EA1212914205D93A68C9
:1034E00022F4E06242EA0111396041070AD5E1683D
:1034F0003A6802F07002914204D93A6822F07002F0
:103500001143396081070AD5A1683A6802F00F02B9
:10351000914204D93A6822F00F0211433960C00782
:1035200068D1206881070AD5A1683A6802F00F02C5
:10353000914204D23A6822F00F0211433960D8F860
:10354000001001F00F018D420CD2D8F8001021F0CC
:103550000F012943C8F80010D8F8001001F00F013E
:10356000A94255D141070AD5E1683A6802F07002D4
:10357000914204D23A6822F0700211433960010787
:103580000CD521693A68702303EA1212914205D2E0
:103590003A6822F4E06242EA01113960C0060CD5B3
:1035A00060693968702202EA1121884205D23968BF
:1035B00021F4E04141EA0020386000F007F9396861
:1035C0004BF6381201F00F01C0F60002525C40F2D7
:1035D0003801C2F20001096840F2D00320FA02F279
:1035E000C2F2000308461A6001B0BDE8F043FEF7DE
:1035F000F5BD00BF606857F8201C01280CD00228D8
:1036000004D003285AD1890102D507E0890305D4E3
:10361000012001B0BDE8F0838905F9D557F8041CF5
:1036200021F00301084347F8040CFEF7E1F9616853
:103630000646032941F2883939D0022929D00129C7
:1036400010D100BF57F8040C00F0180008283FF410
:1036500068AFFEF7CDF9801B48454FF00300F1D964
:103660000DE000BF57F8040C10F0180F3FF459AFED
:10367000FEF7BEF9801B48454FF00300F2D901B0B8
:10368000BDE8F083FEF7B4F9801B48454FF0030016
:10369000F5D857F8040C00F018001028F2D140E7D4
:1036A000FEF7A6F9801B48454FF00300E7D857F80E
:1036B000040C00F018001828F2D132E78907A7D5CA
:1036C000ACE7000080B500F081F840F62041C4F27C
:1036D000024109684BF6381201F00F01C0F60002F2
:1036E000515C01F01F01C84040F2D001C2F200015C
:1036F000086080BD80B500F069F840F62041C4F252
:1037000002410A684BF6381302F00F02C0F60003BC
:103710009A5C02F01F02D04040F2D002C2F20002D6
:10372000106009684BF64812C1F30211C0F600029E
:10373000515C01F01F01C84080BD000080B500F061
:1037400045F840F62041C4F202410A684BF63813AE
:1037500002F00F02C0F600039A5C02F01F02D04094
:1037600040F2D002C2F20002106009684BF6481223
:10377000C1F30221C0F60002515C01F01F01C840F4
:1037800080BD000080B500F021F840F62041C4F271
:1037900002410A684BF6381302F00F02C0F600032C
:1037A0009A5C02F01F02D04040F2D002C2F2000246
:1037B000106009684BF64812C1F30231C0F60002EE
:1037C000515C01F01F01C84080BD000080B540F68B
:1037D0000041C4F20241C86900F01800082802BF85
:1037E00040F60010C0F23D0080BDC86910F0180F0F
:1037F00034D0C86900F01800102802BF47F6400016
:10380000C0F27D1080BDC86900F01800182849F288
:103810000000C0F2D03066D1D1F828E08A6AC2F345
:10382000052C8A6A8B6BBCF1000F04BF002080BDA1
:10383000DB08D20603EAE2726FF35F3200EE102A71
:103840000EF00302B8EE400A032A15D0012A17D160
:103850000A68920618D49FED251A1DE008688006B4
:1038600049F20000C0F2D03058BF80BD0968C1F3F2
:10387000C101C84080BD00BF9FED1B1A0CE000BF16
:103880009FED1B1A08E000BF0A68C2F3C102D040D6
:1038900001EE100AB8EE411A02EE10CA486BB8EEFB
:1038A000422A6FF35F2081EE021A02EE100A9FEDAA
:1038B000113AB8EE422A20EE030A486B30EE020AB3
:1038C000B7EE002AC0F3462030EE020A013021EEA6
:1038D000000A01EE100AB8EE411A80EE010ABCEEB1
:1038E000C00A10EE100A80BD20BCBE4B0024744CF0
:1038F0000024744A00000039002804BF01207047EA
:103900002DE9F04381B040F6004740F6F049044607
:10391000C4F20247C4F20249F86959F8C81C227877
:1039200000F01808D00601F003062AD5B8F1080FF8
:103930001CD0B8F1180F08BF022E17D0E169386803
:10394000002900F06D8140F480703860FEF750F877
:10395000054600BF386880050CD4FEF749F8401BC7
:1039600002284FF00300F5D958E200BFE0690028B3
:1039700000F0E480B869216A20F47C1040EA01403C
:10398000B8612078C00719D0B8F1100F12D0B8F183
:10399000180F08BF032E0DD061683868B1F5A02F4D
:1039A00060DA002900F0B081B1F5803F00F0CE81EF
:1039B0009EE100BF6068002800F0C080207880078A
:1039C00077D5B8F1000F21D0E068B8F1180F08BF23
:1039D000012E55D03968002800F06681206921F059
:1039E000180108433860386840F001003860FDF77E
:1039F000FFFF05463868800754D4FDF7F9FF401BE8
:103A000002284FF00300F5D908E200BFE068002863
:103A100000F094803968206901F01801814231D0AA
:103A2000396821F0180108433860FFF7CFFE396A82
:103A30004BF6381201F00F01C0F60002515C40F263
:103A4000D00201F01F0120FA01F140F23800C2F269
:103A500000000068C2F200021160FEF7BFFB002800
:103A60006CD10FE000F06A81B1F5A81F40F04081F1
:103A700040F480203860386840F4801064E100BF72
:103A800000285BD0FDF7B4FF054600BF386880070B
:103A900008D4FDF7ADFF401B0228F7D9032001B081
:103AA000BDE8F0833869616920F4FE0040EA014016
:103AB00038612078000745D4207840075CD420780E
:103AC000800600F17F80A56AA5B3B8F1180F40F019
:103AD000C98059F8C81C59F8BC0C012D2ED0E26AD7
:103AE00001F00303934229D1C1F30521226B9142D6
:103AF00024D1626B01466FF35F21013A91421DD1DF
:103B0000A16BC0F3462201398A4217D1E16BC0F3A1
:103B1000064201398A4211D1216CC0F30660013995
:103B200088420BD159F8B80CE16CC0F3CC00884244
:103B300040F0E881002001B0BDE8F083012001B031
:103B4000BDE8F083A169D9F80000002952D040F007
:103B50008060C9F80000FDF74BFF0546D9F800006A
:103B60000001A9D4FDF744FF401B0228F6D9032029
:103B700001B0BDE8F08300BF4FF62446CFF6FF76D4
:103B8000B859C00712D1B85940F00100B851FDF73B
:103B90002FFF0546B859C00708D1FDF729FF401B84
:103BA00002284FF00300F5D938E100BFA168D9F829
:103BB0000000042946DC002900F0EA80012900F019
:103BC0001781D5E0616A3868002900F07F8040F4F1
:103BD00080503860FDF70CFF054600BF3868800450
:103BE0003FF571AFFDF704FF401B02284FF00300C3
:103BF000F4D913E120F08060C9F80000FDF7F8FE69
:103C0000054600BFD9F8000000017FF555AFFDF76C
:103C1000EFFE401B02284FF00300F3D9FEE000BF87
:103C200020F480703860FDF7E3FE054638688005B3
:103C30007FF5A7AEFDF7DCFE401B02284FF0030026
:103C4000F4D9EBE0052900F0C780852940F0908089
:103C500040F00400C9F80000D9F8000040F08000EE
:103C6000C2E000BF386820F080703860FDF7C0FE09
:103C7000022D05460CD100BF3868800140F1D2808A
:103C8000FDF7B6FE401B02284FF00300F4D9C5E053
:103C90003868800140F12881FDF7AAFE401B022808
:103CA0004FF00300F4D9B9E021F001003860FDF7CE
:103CB0009FFE0546386880077FF5FBAEFDF798FE4E
:103CC000401B02284FF00300F4D9A7E020F48050F5
:103CD0003860FDF78DFE0546386880047FF5F3AE49
:103CE000FDF786FE401B02284FF00300F4D995E053
:103CF00020F480303860386820F4802038603868DC
:103D000020F4801024E000BF20F480303860386850
:103D100020F480103860386820F480203860FDF787
:103D200067FE0546386880037FF548AEFDF760FE04
:103D3000401B64284FF00300F4D96FE040F480206A
:103D40003860386820F480103860386840F480307B
:103D50003860FDF74DFE0546386880033FF52EAE0E
:103D6000FDF746FE401B64284FF00300F4D955E0F0
:103D700020F00100C9F80000D9F8000020F004008C
:103D8000C9F80000D9F8000020F0800032E000BF40
:103D900020F00100C9F80000D9F8000020F08000F0
:103DA000C9F80000D9F8000020F00400C9F80000AC
:103DB000FDF71EFE054641F2883600BFD9F8000027
:103DC00080077FF57CAEFDF713FE401BB0424FF03D
:103DD0000300F3D922E000BF40F00400C9F800005E
:103DE000D9F8000020F08000C9F80000D9F80000E0
:103DF00040F00100C9F80000FDF7FAFD054641F268
:103E0000883600BFD9F8000080073FF558AEFDF7AF
:103E1000EFFD401BB0424FF00300F3D901B0BDE805
:103E2000F08300BF59F8C80C43F6037104F12C036A
:103E300088430ECB084340EA0220A16B49F8C80C26
:103E40004FF47E4202EB4121E26B581E4FF4FE0319
:103E500089B203EB02426FF35F20084402F4FE01D3
:103E6000226C4FF0FE4303EB0262084402F0FE4175
:103E7000084449F8BC0C59F8C80C20F0100049F867
:103E8000C80CE06CC00049F8B80C59F8C80C40F0F8
:103E9000100049F8C80C59F8C80C616C20F00C00EF
:103EA000084349F8C80C59F8C80CA16C20F0200050
:103EB000084349F8C80C59F8C80C40F4803049F858
:103EC000C80C386840F080703860FDF791FD0446FA
:103ED000386880013FF52EAEFDF78AFD001B0228F1
:103EE0004FF00300F4D999E759F8C80C4FF6FC716C
:103EF000CFF6F871084049F8C80C002001B0BDE8C1
:103F0000F08300BF59F8C80C20F0100049F8C80C25
:103F1000FDF76EFD0546FDF76BFDA842FBD0E06C9A
:103F2000C00049F8B80C59F8C80C40F0100049F826
:103F3000C80C002001B0BDE8F083000091E8051036
:103F4000CB68104347F61C02C4F200421060886937
:103F500043EA0C02104347F62042C4F2004250608C
:103F60001068D1E9043120F0FF10184340EA014104
:103F70000020116070470000002804BF0120704736
:103F800070B5044690F82D0028B9002084F82C0064
:103F9000204600F063F8022047F60C06C4F2004603
:103FA00084F82D003068C00652D4CA20B061532076
:103FB000B061306840061DD4306840F08000306049
:103FC000FDF716FD3168490614D40546FDF710FDCE
:103FD000411B3068B1F57A7F02D84006F6D509E07A
:103FE000400607D4032084F82D003168FF21B16119
:103FF00070BD00BFF0684FF6BF71CFF68F3108403B
:10400000F060231D22690BCB43EA01411043A269F2
:10401000F56810432843F06071603068D4E90912F4
:1040200020F4F850084310433060204603F062FF4C
:1040300010B1FF21B16170BDF068D4E9071220F022
:1040400060406369104308431843F060FF20B0618B
:10405000012084F82D00002070BD000010B5A4B030
:10406000044602A808308021FCF75EF9206847F674
:104070000001C4F20041884202D024B010BD00BF4C
:10408000002003904FF0007002904FF400702090D9
:1040900002A8FEF797FE002818BFFCF76DFC40F65B
:1040A000A840C4F20240816C41F40041816401687F
:1040B00041F400110160006800F4001001900198C3
:1040C00024B010BD042888BF7047DFE800F0031B50
:1040D00013352D004EF21000CEF20000016821F0E1
:1040E0000401016040F6E440C4F20240016821F09E
:1040F0000C0120E04EF21000CEF200000168022216
:1041000006E000BF4EF21000CEF20000016801226E
:1041100021F00401016040F6E440C4F2024001686D
:1041200062F3830107E000BF4EF21000CEF2000000
:10413000016841F0040101607047000010B540F2D1
:104140002830C2F20000D0E90021D0E9024E531C11
:1041500003604B1C4360631CD0F810C083600EF1F9
:104160000103C3600CF10103002A036103D401229F
:10417000426100220260042912DA092C16DABEF12B
:10418000630F03DB012101620021C16040F2E731CE
:104190008C45B8BF10BD012141620021016110BDF5
:1041A0000121816100214160092CE8DB0121C1610D
:1041B00000218160BEF1630FE4DAE7E7411E0020D1
:1041C000B0EB116F1CBF012070474EF21002CEF20F
:1041D000000251609060116841F003011160704766
:1041E0004EF21000CEF200000068400744BF0420E9
:1041F000704740F6E440C4F20240006802A100F0BB
:104200000C000858704700BF0000000001000000CB
:104210000200000000000000FFF790BF90F884103B
:10422000012904BF022070472421C0F888100168CA
:104230000A680B6822F0005223F001030B60002390
:1042400043660A602021C0F8881080F8843000207E
:1042500070470000704700007047000090F884200D
:10426000012A04BF02207047B0B52422C0F888207C
:104270000268D0F864E0D2F800C01368BEF1000F05
:1042800023F001031360936823F0606341EA0301A4
:10429000916019D0936891684BF6683E490FC0F65B
:1042A000000E4BF670351EF80140C0F60005C3F352
:1042B0004263695CE400B4FBF1F11EF80340EB5C7F
:1042C000E500B5FBF3F301E001210123A0F86A103A
:1042D0002021A0F86830C2F800C0C0F88810002182
:1042E00080F884100020B0BD90F88420012A04BF1B
:1042F00002207047B0B52422C0F888200268D0F8A8
:1043000064E0D2F800C01368BEF1000F23F001038F
:104310001360936823F0604341EA0301916019D070
:10432000936891684BF6683E490FC0F6000E4BF655
:1043300070351EF80140C0F60005C3F34263695CA6
:10434000E400B4FBF1F11EF80340EB5CE500B5FBC3
:10435000F3F301E001210123A0F86A102021A0F865
:104360006830C2F800C0C0F88810002180F88410BE
:104370000020B0BD7047000070470000B0B5044693
:104380000068D4F88810D4F88C508268120640F186
:104390008280212940F07F80206850E8020F216848
:1043A00020F0800041E80202DAB1206850E8020FF4
:1043B000216820F0800041E8020292B1206850E8B4
:1043C000020F216820F0800041E802024AB1206813
:1043D00050E8020F216820F0800041E80202002A24
:1043E000DAD1E06F40B1FCF71FFE28B1E06FFCF7B7
:1043F00011FF102800F08980206850E8000F216824
:1044000020F0C00041E80002BAB3206850E8000F75
:10441000216820F0C00041E8000272B3206850E833
:10442000000F216820F0C00041E800022AB3206894
:1044300050E8000F216820F0C00041E80002002A87
:10444000DAD11AE0206850E8020F216820F4000059
:1044500041E80202DAB1206850E8020F216820F436
:10446000000041E8020292B1206850E8020F216882
:1044700020F4000041E802024AB1206850E8020F2F
:10448000216820F4000041E80202002ADAD120204D
:10449000C4F888002068806840064FF0000040F1B2
:1044A000B280222D18BFB0BD206850E8020F2168ED
:1044B00020F0400041E80202DAB1206850E8020F23
:1044C000216820F0400041E8020292B1206850E8E3
:1044D000020F216820F0400041E802024AB1206842
:1044E00050E8020F216820F0400041E80202002A53
:1044F000DAD1D4F8800068B1FCF796FD50B1D4F859
:104500008000FCF787FE102804D11020C4F890002A
:104510000320B0BD206850E8000F216820F490709F
:1045200041E80002DAB1206850E8000F216820F469
:10453000907041E8000292B1206850E8000F2168B5
:1045400020F4907041E800024AB1206850E8000F62
:10455000216820F4907041E80002002ADAD14FF679
:10456000FE70CEF6FF7000BF216851E8021F22687E
:10457000014042E80213C3B1216851E8021F2268DA
:10458000014042E8021383B1216851E8021F22680A
:10459000014042E8021343B1216851E8021F22683A
:1045A000014042E80213002BDED1E06E012824D145
:1045B000206850E8000F216820F0100041E8000258
:1045C000DAB1206850E8000F216820F0100041E8BF
:1045D000000292B1206850E8000F216820F010001E
:1045E00041E800024AB1206850E8000F216820F03D
:1045F000100041E80002002ADAD12020C4F88C0023
:104600000020E0666067B0BD002804BF012070474D
:1046100010B52421C0F88810016804460A6822F009
:1046200001020A6000220A604A608A6000F01CFBF6
:104630000020C4F89000C4F88800C4F88C00E0663C
:10464000206784F8840010BD7047000070B50268D0
:1046500040F62F04D369116896681C40202C0BD1BA
:1046600001F0200406F080552D1916D0416F61B37A
:10467000BDE87040084700BF40F60F052B420CD044
:104680000125C1F2000506EA050C40F22015C0F232
:1046900000450D4015EB0C0524D1C46EDD0615D583
:1046A000012C13D111F0100510D010211162916866
:1046B000490661D4B0F85C10B0F85E20B0F85E3006
:1046C000002B18BF914240F0058270BDDD0215D568
:1046D00016F4800512D04FF480111162BDE87040CD
:1046E000FFF74ABEDD0718BF11F4807540F0F8806F
:1046F0009D0706F0010E00F1FF8008E11A0606D5BD
:1047000001F0800206F40006921940F063825A0616
:1047100040F1DA8011F0400200F0D680016851E8E3
:10472000001F026821F0400142E80013DBB101687C
:1047300051E8001F026821F0400142E8001393B1E4
:10474000016851E8001F026821F0400142E80013AF
:104750004BB1016851E8001F026821F0400142E8B6
:104760000013002BDAD12021C0F8881000218167C6
:10477000BDE8704001F006B8D0F8802011688B6C5D
:10478000B0F85C4099B2002900F09080A14280F01E
:104790008D80A0F85E30116D81297BD0016851E8D1
:1047A000001F026821F4807142E80013BBB3016866
:1047B00051E8001F026821F4807142E8001373B3CE
:1047C000016851E8001F026821F4807142E800137B
:1047D0002BB3016851E8001F026821F4807142E8A0
:1047E0000013002BDAD11AE0016851E8021F0268B9
:1047F00021F0010142E80213DBB1016851E8021F18
:10480000026821F0010142E8021393B1016851E806
:10481000021F026821F0010142E802134BB1016856
:1048200051E8021F026821F0010142E80213002B47
:10483000DAD12021C0F88C100021C166016851E84E
:10484000001F026821F0100142E80013DBB101688B
:1048500051E8001F026821F0100142E8001393B1F3
:10486000016851E8001F026821F0100142E80013BE
:104870004BB1016851E8001F026821F0100142E8C5
:104880000013002BDAD1D0F8801004460846FCF75C
:10489000CBFB204602210167B0F85C10B0F85E2027
:1048A000891A89B2BDE87040FFF7D4BC8C427FF40E
:1048B0000CAF126D812A7FF408AF02220267BDE8B7
:1048C0007040FFF7C7BC00BF1A0240F18F8111F0A2
:1048D000804200F08B81BDE87040FFF74BBD00BF08
:1048E00001251562D0F8905045F00105C0F89050B0
:1048F0009D0706F0010E0AD5BEF1000F07D0022475
:104900001462D0F8904044F00404C0F890405C0772
:104910000AD5BEF1000F07D004251562D0F89050DB
:1049200045F00205C0F890501D070CD501F0200598
:1049300055EA0C0507D008251562D0F8905045F0CF
:104940000805C0F890501D050BD511F0806508D002
:104950004FF400651562D0F8905045F02005C0F87E
:104960009050D0F89050002D3FF4AFAE9B060BD581
:1049700001F0200106F08053C91805D0416F19B12C
:104980000446884722682046D0F89010926801F0CB
:10499000280102F04002891806D10446FFF754FEB0
:1049A0000020C4F8900070BD016851E8001F026843
:1049B00021F4907142E80013DBB1016851E8001F57
:1049C000026821F4907142E8001393B1016851E844
:1049D000001F026821F4907142E800134BB1016896
:1049E00051E8001F026821F4907142E80013002B87
:1049F000DAD14FF6FE71CEF6FF7100BF026852E8C1
:104A0000022F03680A4043E80226C6B1026852E852
:104A1000022F03680A4043E8022686B1026852E882
:104A2000022F03680A4043E8022646B1026852E8B2
:104A3000022F03680A4043E80226002EDED1C16E31
:104A4000012924D1016851E8001F026821F01001FA
:104A500042E80013DBB1016851E8001F026821F051
:104A6000100142E8001393B1016851E8001F026889
:104A700021F0100142E800134BB1016851E8001F1A
:104A8000026821F0100142E80013002BDAD1202146
:104A9000C0F88C100021C166026841679168490620
:104AA00040F1A080D0F88010002900F09B8048F2EF
:104AB0009942C0F6000204460846CA66FCF708FBA5
:104AC00000283FF402AED4F88000C16EBDE870400B
:104AD000084700BF891A00BF026852E8002F036828
:104AE00022F4907243E80026DEB1026852E8002FFB
:104AF000036822F4907243E8002696B1026852E8F7
:104B0000002F036822F4907243E800264EB1026839
:104B100052E8002F036822F4907243E80026002E2A
:104B2000DAD14FF6FE72CEF6FF7200BF036853E88B
:104B3000023F0668134046E80235C5B1036853E8F2
:104B4000023F0668134046E8023585B1036853E822
:104B5000023F0668134046E8023545B1036853E852
:104B6000023F0668134046E80235002DDED12022C0
:104B7000C0F88C200022C266426700BF026852E87B
:104B8000002F036822F0100243E80026DEB102681D
:104B900052E8002F036822F0100243E8002696B185
:104BA000026852E8002F036822F0100243E8002652
:104BB0004EB1026852E8002F036822F0100243E869
:104BC0000026002EDAD1022289B20267BDE87040C9
:104BD000FFF740BB816F00293FF477ADBDE870401F
:104BE000084700BFBDE87040FFF72EBDDA017FF532
:104BF0006CADB1F1FF3FC8BF70BDBDE87040FFF7BD
:104C00002BBB000010B5D8B10446D0F8880028B9F5
:104C1000002084F88400204600F082F82420C4F8A4
:104C200088002068A16A0268002922F0010202605F
:104C30001CBF204603F006FB204604F091FA08B1A1
:104C4000012010BD2168486820F4904048608868C1
:104C500020F02A008860086840F0010220460A60BF
:104C6000BDE8104003F062BB10B5016844F2004299
:104C7000C4F2000291423DD044F60002C4F20002A8
:104C800091421BD043F60000C4F20100814218BFDC
:104C900010BD40F69C40C4F20240816821F480417E
:104CA000816040F20040C4F202204FF44041FCF722
:104CB0003BFD3A20BDE81040FDF7E6BA40F69C41C6
:104CC000C4F202410A68044622F480220A6040F2DB
:104CD0000041C4F2022108464FF4A061FCF724FD14
:104CE000D4F88000FCF726FA3C20BDE81040FDF720
:104CF000CBBA00BF40F69C40C4F20240016821F4E8
:104D00000031016040F20040C4F20220A0F5806052
:104D10000C21FCF709FD3B20BDE81040FDF7B4BABB
:104D20002DE9F041C4B00446002524A86C21439528
:104D3000CDE94155CDE93F55FBF7F6FA02A88821A8
:104D4000FBF7F2FA206844F20041C4F20001884205
:104D500000F0F68044F60001C4F2000188423DD024
:104D600043F60001C4F20101884240F02381012092
:104D70000024029002A80394FEF724F8002818BF2C
:104D8000FBF7FAFD40F68C40C4F20240816941F421
:104D900080418161816901F480410191019901683B
:104DA00041F00201016000683FA900F0020001909B
:104DB00001984FF440403F900220CDE94004042088
:104DC000439040F20040C4F202204294FCF72EFDD2
:104DD0003A20022100223A24E7E000BF0420002705
:104DE000029002A80397FDF7EDFF002818BFFBF71C
:104DF000C3FD40F68C40C4F20240016940F2004815
:104E000041F4802101610169C4F2022801F480218A
:104E10000191019901683FAE41F002010160006813
:104E2000022500F00200019001984FF480603F904D
:104E30000720439040463146CDE940554297FCF764
:104E4000F5FC4FF480703FA9A1C10D20439040466E
:104E500031464295FCF7EAFC40F20050C4F20040B3
:104E6000016840F2EC2641F4802101602120249069
:104E70001920CDE925074FF40020C2F20006CDE944
:104E80002907012006F11805CDE92D0024A829469F
:104E9000CDE927772B973597CDE92F77CDE9317776
:104EA0003397FBF7BBFD002818BFFBF765FD3046C5
:104EB00000212A46FBF7DEFE002818BFFBF75CFD49
:104EC00040F2EC20C2F20000FBF7BEFF002818BF42
:104ED000FBF752FD40F254605021C2F20000C4F2D0
:104EE000020101604FF4800100228123C0E90E120B
:104EF000C0E910228364FBF74BFE002818BFFBF7C4
:104F00003BFD40F25465C2F2000540F2EC21C2F2D2
:104F100000012846FBF744FF002818BFFBF72CFDD3
:104F200028461021C4F88050EC65FCF7E5F800280D
:104F300018BFFBF721FD3C20022100223C2434E075
:104F4000022402A803950294FDF73CFF002818BF35
:104F5000FBF712FD40F68C40C4F20240016941F4B7
:104F600000310161016901F4003101910199016889
:104F700041F00101016000683FA900F001000190CB
:104F800001980C20CDE93F040020CDE94100072025
:104F9000439040F20040C4F20220A0F58060FCF78C
:104FA00045FC3B20002100223B24FDF795F92046DB
:104FB000FDF780F944B0BDE8F08100002DE9F04331
:104FC00081B00446D0F88C0020281EBF022001B01A
:104FD000BDE8F0830E4600294FF0010018BF002AFB
:104FE00002D101B0BDE8F08320689946816815467A
:104FF000490603D5816821F040018160002022210B
:10500000C4F89000C4F88C10E066FCF7F1FCA4F83A
:105010005C50A4F85E50A1688046C9B1B1F1805FD0
:1050200012D0B1F5805F17D12069FF270146002813
:105030001CBF31460026002808BF40F2FF17A4F825
:10504000607035460E4617E0206918B13F2706E02C
:10505000206918B17F2702E0002700E0FF27002524
:10506000A4F8607008E000BF384006F8010BB4F8FF
:105070005E000138A4F85E00B4F85E0090B12046EE
:10508000202100224346CDF8009004F0D5FC88B9D9
:105090002068002E406AE7D1384025F8020B002630
:1050A000E5E700BF00202021C4F88C1001B0BDE866
:1050B000F08300BF03202021C4F88C1001B0BDE8AC
:1050C000F083000080B5D0F88C30202B08D1002967
:1050D0004FF0010318BF002A06D1184680BD00BF5B
:1050E0000223184680BD00BF0023C366D0F800C06D
:1050F00042F20043C4F200439C4503D0DCF8043084
:105100001B0203D4BDE8804004F0F8B8036853E8FC
:1051100000CFD0F800E04CF080634EE8003CBCF1DA
:10512000000FEFD0036853E800CFD0F800E04CF058
:1051300080634EE8003CBCF1000FE3D0036853E805
:1051400000CFD0F800E04CF080634EE8003CBCF1AA
:10515000000FD7D0036853E800CFD0F800E04CF040
:1051600080634EE8003CBCF1000FCFD1CAE70000DD
:10517000D0F88C30202B07D100294FF0010318BF45
:10518000002A05D11846704702231846704700BF11
:1051900080B50023C366D0F800C0DCF808305B0699
:1051A00005D5DCF8083023F04003CCF8083042F293
:1051B0000043C4F200439C4503D0DCF804301B02DA
:1051C00004D404F05FF9002080BD00BF036853E8F9
:1051D00000CFD0F800E04CF080634EE8003CBCF11A
:1051E000000FEED0036853E800CFD0F800E04CF099
:1051F00080634EE8003CBCF1000FE2D0036853E846
:1052000000CFD0F800E04CF080634EE8003CBCF1E9
:10521000000FD6D0036853E800CFD0F800E04CF080
:1052200080634EE8003CBCF1000FCFD1C9E700001D
:1052300070B5006844F20041C4F2000188420DD00C
:1052400043F60001C4F20101884206D140F2FC108D
:10525000C2F200000078012822D170BD40F2FC109B
:10526000C2F200000078002850D0012818BF70BD9D
:1052700040F24045C2F20005A88A002872D195F894
:105280002D10AC296ED0002340F2F87005F12D01ED
:10529000C2F200000122AB82BDE87040FFF768BF98
:1052A00040F24041C2F20001CA89487840F63035E8
:1052B000C2F20005531CA85440F2D0429CB2C2F284
:1052C00000029268632C88BF00238242CB810FD1F9
:1052D0004FF48032C1F80A2000220A7040F208021E
:1052E000C2F2000213780425002B18BF0625558052
:1052F000A0F1790212F1090F52D8A0F1C1034A8935
:10530000072B51D8042A59D14EE000BF40F2404546
:10531000C2F20005A978288A40F624264B1CC2F266
:1053200000065CB2325CAB7040F6B023C2F2000300
:10533000B4F1FF3F5A54DCBF0021A970002861D1AD
:105340003178AA295ED040F2F87040F6242100237B
:10535000C2F20000C2F2000101222B82BDE87040BF
:10536000FFF706BF013081B2A8820A296CD305F18C
:105370002D04204602F0E4FB0020A882C5F82D0091
:10538000C5F83100A5F8350040F20040C4F2022013
:1053900008210022FCF726FBA88A211873E000BF31
:1053A0004A89042A0AD104228B89012B1ED140F29A
:1053B0000803C2F200035B880AE000BF01228A8171
:1053C0000A7040F20802C2F2000205235380002254
:1053D000551CACB20A449C424D8182F8200005D392
:1053E0000C4602F0B7FA21460020A081002001F807
:1053F000010F40F26470C2F200000122BDE870406B
:10540000FFF7B6BE0C280DD3B6F80510AE61093112
:105410008AB26982802A20D24FF0FF3212FA81F1DB
:10542000814217DD431C98B27F2888BF002340F2D9
:10543000F87016FA83F1C2F2000001222B82BDE857
:105440007040FFF795BE00BF15FA80F000F12D0106
:1054500019E000BF304602F013FC002028613046FE
:105460008021FAF761FF022005F096FA40F2004031
:10547000C4F2022008210022FCF7B4FA022005F051
:105480008BFA288A311840F2F870C2F2000001222B
:10549000BDE87040FFF76CBE704700002DE9F04199
:1054A0000446D0F8880020281CBF0220BDE8F08107
:1054B00000294FF0010018BF002A01D1BDE8F0819A
:1054C0002068884681681D461646090603D581680E
:1054D00021F0800181600020C4F890002120C4F8F0
:1054E0008800FCF785FAA4F85460A4F85660A16817
:1054F0000646B1F5805F02D12069002864D0474696
:105500000020B4F856202168002A65D06A1C26D0F5
:10551000002D51D0804600BFC869000608D4FCF7B2
:1055200067FA801BA84200F2818021680868F3E7CF
:1055300017B117F8010B04E038F8020B00276FF3DE
:105540005F208862B4F856000138A4F85600B4F819
:1055500056000028E0D13FE0CA69120609D4CA69A2
:10556000120606D4CA6912065CBFCA695FEA026203
:10557000F2D51FB117F8012B05E000BF30F8022B60
:1055800000276FF35F228A62B4F85620013AA4F82C
:105590005620B4F85620002AE1D11DE030F8022B45
:1055A00000276FF35F228A62B4F85620013AA4F80C
:1055B0005620B4F856207AB1CA69120634D5002FA5
:1055C000ECD017F8012BEEE700274046B4F8562040
:1055D0002168002A7FF49AAFC86940061ED41DB323
:1055E000681C14D1C869400626D4C869400623D473
:1055F000C869400620D4C86940064FF00000F1D5C4
:105600000DE000BF20680168C069400614D4FCF7B3
:10561000EFF9801BA842F5D908E000BF0020202147
:10562000C4F88810BDE8F081FCF7E2F903202021DE
:10563000C4F88810BDE8F08100202021C4F888104B
:10564000BDE8F081D0F88830202B07D100294FF039
:10565000010318BF002A05D11846704702231846D7
:10566000704700BFD0F800C0DCF808301B0605D535
:10567000DCF8083023F08003CCF808300165002105
:10568000A0F85420A0F85620C0F890102121C0F8AE
:105690008810426E8168B2F1005F35D1B1F5805F4C
:1056A00002D10169002961D049F65D11C0F60001FF
:1056B000816700BF016851E8021F026841F40001E0
:1056C00042E80213002B4ED0016851E8021F026825
:1056D00041F4000142E80213002B44D0016851E874
:1056E000021F026841F4000142E80213DBB30168C3
:1056F00051E8021F026841F4000142E80213002B46
:1057000004BF00207047D5E7B1F5805F01D1016982
:1057100091B349F69501C0F600018167016851E82F
:10572000001F026841F0800142E80013DBB101680C
:1057300051E8001F026841F0800142E8001393B174
:10574000016851E8001F026841F0800142E800133F
:105750004BB1016851E8001F026841F0800142E846
:105760000013002BDAD10020704700BF49F2B57159
:10577000C0F600019CE700BF49F2E961C0F60001F4
:10578000CBE70000006843F60001C4F20101884243
:1057900018BF704780B540F20040C4F202202021BB
:1057A0000022FCF71FF9012005F0F6F840F2404016
:1057B000C2F20000411C40F26470C2F200000122FB
:1057C000BDE88040FFF7D4BC2DE9F04F81B0027EE8
:1057D00090F80C90457E90F81A8040F23C2EC17EE5
:1057E000467F90F81EC040F2000440F20043C2F22F
:1057F000000E552AC2F20004C2F200038EF8022005
:105800008EF801100AD0AA2A01D10220206040F2AD
:10581000D04AAA29C2F2000A0CD017E00120206069
:1058200000201860CEE9020040F2D04AAA29C2F254
:10583000000A0BD1DAF8040022280DD0112805D176
:105840006746F34605F0B8FC0AE000BF5520216822
:1058500000908A1E0BD020E06746F34605F0D0FC8E
:10586000DE46BC468820216800908A1E15D1AA2EEB
:1058700004D0552E05D1002301E000BF0123CEF84E
:105880000830BCF1AA0F05D0BCF1550F05D100239B
:1058900001E000BF0123CEF80C3040F6244B45F266
:1058A000AA53C2F2000BC2F23423CBF8003001231A
:1058B0008BF8043003239EF80070ABF809309EF893
:1058C00002300220B9458BF80B0018BF4FF00009D9
:1058D000AA2B8BF80C908BF80E0005D0552B0DD110
:1058E000481EB0FA80F001E0B2FA82F0410955207A
:1058F000002918BF6FF077008BF80F004FF400708D
:10590000AA2DABF8100003D0552D04D1552100E08D
:1059100088218BF81210B8F1AA0FABF8130005D04C
:10592000B8F1550F05D1552101E000BF88218BF852
:1059300015109EF801004FF40071ABF81610AA285C
:1059400004BF00988BF8180040F20040C2F200003B
:105950000068ABF819102A2101288BF81D1017D107
:1059600040F20441C2F20001DAF804200968112A69
:10597000ABF8201007BF40F20841C2F2000140F22C
:105980002441C2F200010968ABF822100DE000BF0B
:1059900040F2E531C2F200010978012905D1552113
:1059A0008BF81E100021CBF82010552E0CD0AA2EFB
:1059B00016D1012803D0DEF80800012810D1882074
:1059C0008BF81E000CE000BFDEF80800552100280F
:1059D00008BF6FF0770100208BF81E10CBF8200075
:1059E000DAE919560AF150078FCFDAF86C40ABF8B4
:1059F00030700AF17007ABF82800ABF82A10ABF84A
:105A00002C20ABF82E30ABF83250ABF83460ABF84A
:105A100036408FCFDAE92165DAF88C40ABF83800F0
:105A2000200A8BF847000A20BCF1550FABF83A105A
:105A3000ABF83C20ABF83E30ABF84070ABF84260BE
:105A4000ABF844508BF846408BF848002AD0BCF1A4
:105A5000660F17D0BCF1AA0F45D1DEF80C00012863
:105A60002ED040F22841C2F200010968012927D056
:105A700040F2E731C2F20001097801292AD1AA20B7
:105A80002AE000BF40F22840C2F20000006801286E
:105A900029D140F2E730C2F20000007818BB66203E
:105AA0000FE000BFDEF80C005521002808BF6FF0A2
:105AB000770100208BF84910ABF84A0011E000BFD5
:105AC0008820DAF82C10ABF849008BF84B10080A44
:105AD00007E000BF38B95520ABF8490000208BF82B
