:020000040800F2
:10000000200F00206D020008D993000849800008E5
:10001000D98A00082D04000819BA00080000000061
:10002000000000000000000000000000759F0008B4
:100030008506000800000000B9970008799F0008B5
:1000400089020008890200088902000800000000F7
:1000500089020008890200088902000800000000E7
:1000600089020008890200080000000089020008D7
:100070008902000889020008890200088902000834
:100080008902000889020008890200088902000824
:100090008902000889020008890200088902000814
:1000A0008902000889020008890200088902000804
:1000B00089020008890200088902000889020008F4
:1000C00089020008890200088902000889020008E4
:1000D0000000000089020008890200088902000867
:1000E00089020008890200088902000889020008C4
:1000F0008902000889020008890200080000000047
:100100000000000089020008890200088902000836
:100110008902000889020008890200088902000893
:10012000890200088902000881B8000891B8000817
:100130008902000800000000000000008902000899
:10014000890200080000000000000000000000001C
:10015000000000000000000089020008000000000C
:100160000000000000000000890200088902000869
:10017000000000000000000000000000000000007F
:10018000000000000000000000000000000000006F
:10019000000000000000000000000000000000005F
:1001A0000000000000000000890200088902000829
:1001B00089020008890200088902000889020008F3
:1001C0008902000889020008000000000000000009
:1001D000000000000000000000000000890200088C
:1001E000890200080000000000000000000000007C
:1001F00000000000000000000000000000000000FF
:1002000000000000890200088902000800000000C8
:10021000000000008902000800000000000000004B
:10022000000000000000000000000000890200083B
:10023000890200080000000000000000000000002B
:10024000000000000000000000000000890200081B
:100250008902000889020008DFF80CD000F0A2F83B
:1002600000480047CDCB0008200F002007488047FA
:1002700007480047FEE7FEE7FEE7FEE7FEE7FEE78A
:10028000FEE7FEE7FEE7FEE7FEE7000051A00008FC
:10029000590200082DE9F05F0546002092469B4672
:1002A00088460646814640241BE02846414647468C
:1002B000224600F066F853465A46C01A914110D3C0
:1002C00011461846224600F04DF82D1A67EB01083A
:1002D0004F4622460120002100F044F817EB0009A8
:1002E0004E41201EA4F10104DFDC484631462A4677
:1002F0004346BDE8F09F40EA01039B0703D009E0B5
:1003000008C9121F08C0042AFAD203E011F8013B01
:1003100000F8013B521EF9D27047D2B201E000F85A
:10032000012B491EFBD270470022F6E710B5134699
:100330000A4604461946FFF7F0FF204610BD10B5E7
:10034000044604E00B7800F8013B03B1491C521E3F
:10035000F8D2204610BD421C10F8011B0029FBD129
:10036000801A7047202A04DB203A00FA02F10020AC
:1003700070479140C2F1200320FA03F319439040E3
:100380007047202A04DB203A21FA02F0002170474E
:1003900021FA02F3D040C2F12002914008431946ED
:1003A000704700001CB509480090094801900546B7
:1003B000009C06E0E06840F0010394E807009847DD
:1003C0001034AC42F6D3FFF74BFF0000B4DC00085A
:1003D000D4DC000870B58C1810F8015B15F0070329
:1003E00001D110F8013B2A1106D110F8012B03E0CE
:1003F00010F8016B01F8016B5B1EF9D12B0705D4D6
:100400000023521E0DD401F8013BFAE710F8013B1E
:10041000CB1A921C03E013F8015B01F8015B521E3A
:10042000F9D5A142D8D3002070BD0000FFE7FEE758
:1004300083B00290ADF80610FF208DF805008DF80E
:100440000400FFE7BDF80600411EADF80610E0B15C
:10045000FFE79DF8040002994A1C0292097848407F
:1004600000909DF80500009A4DF69C21C0F6000111
:10047000895C48408DF8040000994DF69C30C0F628
:100480000000405C8DF80500DCE79DF805109DF844
:10049000040040EA012003B07047000083B00290DE
:1004A0000191FF208DF8030000208DF80200FFE786
:1004B0009DF802000199884219DAFFE79DF80300D0
:1004C00002999DF80220895C48408DF803009DF850
:1004D000031040F2AA00C2F20000405C8DF8030055
:1004E000FFE79DF8020001308DF80200E0E79DF87B
:1004F0000300C0438DF803009DF8030003B070476C
:1005000080B584B0002003900290019040F2807189
:10051000C2F200010120087040F20C20C2F200007B
:100520000078E0B9FFE740F2F030C2F20000007856
:10053000032814D0FFE700F0CDFF40F21021C2F2F3
:100540000001086040F20C21C2F200010120087095
:1005500040F29071C2F2000100200860FFE740F213
:100560000C20C2F200000078002800F08980FFE72C
:1005700040F24071C2F2000101F1200240F2AC10E1
:10058000C2F2000008F0F0FA0390039801283DD170
:10059000FFE701200290FFE70298032835DCFFE720
:1005A00001200190FFE70198032821DCFFE7029971
:1005B000019800EB810140F24070C2F2000000EBB4
:1005C0004100008C40F29422C2F20002D169126A0A
:1005D000891A884207D8FFE740F29071C2F2000101
:1005E0000120086004E0FFE7019801300190DAE79C
:1005F00040F29070C2F20000006808B1FFE704E02A
:10060000FFE7029801300290C6E7FFE740F29070E2
:10061000C2F20000006890B3FFE700F05BFF40F219
:100620001021C2F200010968401A009040F21C211A
:10063000C2F200010120086040F28071C2F20001A4
:100640000020087040F61B11C2F20001087040F251
:100650000C21C2F20001087040F29420C2F20000A6
:10066000C06A0099884209D0FFE7009840F29421BF
:10067000C2F20001C8620CF043FCFFE7FFE7FFE7AE
:1006800004B080BD7047000040F2F810C2F20000D4
:10069000C068012807D1FFE740F2F031C2F2000143
:1006A0000120087036E040F2F810C2F200008068C5
:1006B000012807D1FFE740F2F031C2F20001032028
:1006C000087026E040F2F810C2F2000040680128ED
:1006D00007D1FFE740F2F031C2F2000102200870BA
:1006E00016E040F2F810C2F200000068012807D1BD
:1006F000FFE740F2F031C2F200010420087006E08A
:1007000040F2F031C2F2000101200870FFE7FFE77C
:10071000FFE7FFE77047000080B586B000208DF846
:10072000160040F25040C2F200000068002842D19A
:10073000FFE740F25440C2F200000CF00BF98DF8D4
:1007400016009DF8160060BBFFE740F25440C2F26D
:100750000000008840F29421C2F2000189698842B9
:100760001ED9FFE740F25440C2F20000008840F278
:100770009421C2F200014969884211D2FFE740F298
:100780005440C2F20000008840F24C41C2F2000125
:10079000086040F25041C2F2000101200860FFE70A
:1007A00008E0FFF7B9FF40F25041C2F2000100201B
:1007B0000860FFE7FFE7002004908DF80F0002902B
:1007C00040F2B860C2F200000068002867D1FFE77D
:1007D00040F24071C2F2000101F1200240F2AC107F
:1007E000C2F2000008F0C0F90490002001900090CF
:1007F0000498012842D1FFE702200190FFE7019809
:10080000032824DCFFE700200090FFE7009803287E
:1008100018DCFFE79DF80F00019A009901EB8202B6
:1008200040F24071C2F2000101EB4201098C084420
:100830008DF80F00029801300290FFE70098013018
:100840000090E3E7FFE7019801300190D7E79DF8BA
:100850000F00029990FBF1F040F2B461C2F2000186
:10086000086040F2B861C2F200010120086040F265
:100870002821C2F20001002008700FE0049818B986
:10088000FFE7FFF749FF08E040F2B861C2F200015C
:10089000002008608DF8170056E0FFE7FFE740F200
:1008A0005040C2F200000068012849D1FFE740F241
:1008B000B860C2F200000068012841D1FFE740F2B1
:1008C0003021C2F200010120086040F28171C2F2C1
:1008D00000010020087040F61C11C2F200010870EF
:1008E00040F25041C2F20001086040F2B861C2F229
:1008F0000001086040F29420C2F20000C06840F29B
:100900004C41C2F200010968884201D0FFE7FFE7CD
:1009100040F29420C2F20000C06940F2B461C2F219
:1009200000010968884201D0FFE7FFE740F2E811C3
:10093000C2F200010620086001208DF8170003E0D4
:1009400000208DF81700FFE79DF8170006B080BD66
:1009500081B040F2F030C2F2000000780138014668
:100960000091032858D80099DFE801F0020E1A26FA
:1009700040F23841C2F200010120086040F2BC613F
:10098000C2F20001086048E040F23841C2F20001C2
:100990000020086040F2BC61C2F2000108603CE047
:1009A00040F23841C2F200010120086040F2BC610F
:1009B000C2F20001086030E040F2D832C2F2000218
:1009C0001068411C116040F29421C2F20001C96A12
:1009D0004CF6CD42CCF6CC42A1FB0221B0EBD10FBC
:1009E0000CD2FFE740F23841C2F20001012008605A
:1009F00040F2BC61C2F2000108600CE040F23841F4
:100A0000C2F200010120086040F2BC61C2F20001A4
:100A100000200860FFE700E0FFE701B0704700003A
:100A200072B6FFE7FEE7000083B00290019142F248
:100A30002800C4F2020000909DF80400C00788B1AD
:100A4000FFE7009908684EF23F02C7F6FF721040B8
:100A50000860029A0099086840EA821040F0240079
:100A600008600FE00099086820F4FE500860029AC0
:100A70000099086840EA82102422C8F2000210435C
:100A80000860FFE703B0704782B0019042F228008F
:100A9000C4F202000090019800F00300032807D17F
:100AA000FFE70099086848F22002104308601EE042
:100AB0009DF80400C00758B1FFE7009800684FF6A2
:100AC000D771C7F6FF710840283000990860FFE72A
:100AD0009DF804008007002808D5FFE70099086802
:100AE0002822C8F2000210430860FFE7FFE702B0C7
:100AF0007047000083B00290019142F22800C4F2D6
:100B0000020000900099086840F002000860019817
:100B100000880299088003B07047000089B00690F1
:100B2000059104208DF81300069803900598029013
:100B300042F22800C4F2020000900099086840F0D8
:100B400002000860EFF3108007900798019072B6DA
:100B5000FFE7029800680399086003980430039047
:100B60000298043002909DF8130001388DF81300AC
:100B7000FFE79DF813000028EBD1FFE701980890EC
:100B8000089880F3108809B07047000080B586B0DF
:100B9000049000F09FFC009042F22000C4F202009A
:100BA0000290FFE70298006810F00B0F15D0FFE7E6
:100BB0000498013080B1FFE700F08CFC0099401AE6
:100BC0000499884203D8FFE7049820B9FFE703207F
:100BD0008DF817002EE0FFE7E4E742F23000C4F2A0
:100BE000020001900298006800F41E000390039830
:100BF00088B1FFE7039A40F2C011C2F200014868D1
:100C000010434860039800F41E0001990860012019
:100C10008DF817000EE002980068C003002805D583
:100C2000FFE701994FF480300860FFE700208DF85E
:100C30001700FFE79DF8170006B080BD80B584B0AF
:100C4000029000F047FC0190029820B9FFE70120D4
:100C50008DF80F0079E0029890F8540002280DD02A
:100C6000FFE7029920208865FFE70299002081F8BC
:100C70004C00FFE701208DF80F0066E00298016844
:100C8000486940F0040048610299052081F8540049
:100C9000FFE70298006800698004002827D4FFE776
:100CA00000F018FC0199401A06281FD3FFE70299AB
:100CB000886D40F0100088650299032081F8540087
:100CC000029890F850000006002805D5FFE702982A
:100CD000416F01200873FFE7FFE70299002081F8C8
:100CE0004C00FFE701208DF80F002EE0D1E70298BD
:100CF0000168486940F0020048610299042081F8C7
:100D00005400029801684FF4FE40C8600299012027
:100D100081F85400029890F850000006002809D588
:100D2000FFE70298416F01200873029801680020D4
:100D30008864FFE7FFE70299002081F84C00FFE795
:100D4000FFE700208DF80F00FFE79DF80F0004B0CB
:100D500080BD000082B00090009820B9FFE701201C
:100D60008DF807001CE0009890F85400022807D086
:100D7000FFE700992020886501208DF807000FE02B
:100D80000099042081F8540000980168486942F2F3
:100D9000040210434861FFE700208DF80700FFE7D9
:100DA0009DF8070002B0704780B584B0039000F052
:100DB00091FB0290039801900198013048B1FFE740
:100DC00040F2EE10C2F20000017801980844019050
:100DD000FFE7FFE700F07EFB0299401A0199884285
:100DE00001D2FFE7F6E704B080BD000080B586B011
:100DF00004900391FFE740F2C010C2F200000078B7
:100E0000012804D1FFE702208DF8170079E040F2B5
:100E1000C011C2F2000101200870FFE7FFE740F2B5
:100E2000C011C2F20001002048604FF47A70FFF751
:100E3000ADFE8DF80B009DF80B00002854D1FFE7A4
:100E40000498006840F2C011C2F20001886042F2CA
:100E50002800C4F2020000900498006820F00040CE
:100E600048F2080188420BD1FFE704984068FFF779
:100E70000BFE4FF47A70FFF789FE8DF80B0028E027
:100E800003994FF0FF300860049880680190FFE7F5
:100E9000019804998A68C9681144884218D2FFE70A
:100EA000019804994968FFF7BFFD4FF47A70FFF786
:100EB0006DFE8DF80B009DF80B0020B1FFE7019847
:100EC0000399086004E0FFE7019801300190DFE733
:100ED000FFE7049801684FF0004060EA01020099C2
:100EE000086810400860FFE7FFE740F2C011C2F257
:100EF000000100200870FFE79DF80B008DF8170037
:100F0000FFE79DF8170006B080BD000081B000200B
:100F10008DF8030042F22800C4F20200016841F09B
:100F2000010101600068C00720B9FFE701208DF8CA
:100F30000300FFE79DF8030001B0704780B586B05D
:100F4000049003910292FFE740F2C010C2F2000049
:100F50000078012804D1FFE702208DF817004FE048
:100F600040F2C011C2F2000101200870FFE7FFE764
:100F700040F2C011C2F20001002048604FF47A70C4
:100F8000FFF704FE8DF807009DF8070058BBFFE748
:100F9000049840F2C011C2F20001886042F22800B9
:100FA000C4F202000090049820F00040022805D10D
:100FB000FFE703980299FFF7B1FD04E00398029957
:100FC000FFF798FDFFE74FF47A70FFF7DFFD8DF82C
:100FD000070004994FF0204060EA01020099086878
:100FE00010400860FFE7FFE740F2C011C2F20001C5
:100FF00000200870FFE79DF807008DF81700FFE755
:101000009DF8170006B080BD81B000208DF8030068
:1010100042F22800C4F202000068C007D8B1FFE71E
:1010200042F20401C4F2020140F22310C4F26750FC
:10103000086048F6AB10CCF6EF50086042F228008A
:10104000C4F202000068C00720B1FFE701208DF85C
:101050000300FFE7FFE79DF8030001B070470000C1
:1010600085B00490039100200090FFE70398009959
:10107000C840002800F09980FFE70398009A0121FA
:101080009140084001900198002800F08A80FFE715
:10109000009820F0030042F26001C4F2024140587F
:1010A0000290009800F00300C1000F2000FA01F147
:1010B000029808400290029804994FF60042CBF63D
:1010C000FD521140890A009A02F00302D2009140B9
:1010D000884233D1FFE7019A42F28001C4F2024113
:1010E000086890430860019A42F28401C4F2024108
:1010F000086890430860019A42F20001C4F202417C
:10110000086890430860019A42F20401C4F2024167
:10111000086890430860009800F00300C1000F20A9
:1011200088400290029B009820F0030142F2600286
:10113000C4F20242885898438850FFE70098410063
:10114000032000FA01F3049A116819431160DDF8D5
:1011500000C00CF007018A000F2101FA02F3049984
:101160006FF0030202EA5C020A44116A99431162B9
:101170000099490000FA01F3049A9168994391603B
:10118000009A012101FA02F3049A516899435160CF
:101190000099490000FA01F20499C8689043C860B8
:1011A000FFE700980130009060E705B0704700004D
:1011B00085B00490039100200090FFE70398006839
:1011C0000099C840002800F05881FFE703980068A4
:1011D000009A01219140084001900198002800F0F8
:1011E0004881FFE703984068022805D0FFE703988D
:1011F0004068122828D1FFE7049800996FF0030295
:1012000002EA51010844006A0290009800F00700C9
:1012100081000F2000FA01F10298884302900398A0
:10122000006900F00F00009901F00701890000FA41
:1012300001F102980843029002980499009B02EA87
:10124000530211440862FFE7049800680290009876
:101250004100032000FA01F10298884302900398AC
:10126000406800F003000099490000FA01F102987B
:101270000843029002980499086003984068012886
:101280000FD0FFE70398406802280AD0FFE70398D1
:101290004068112805D0FFE70398406812282FD135
:1012A000FFE704988068029000984100032000FA4C
:1012B00001F10298884302900398C06800994900A0
:1012C00000FA01F10298084302900298049988609C
:1012D0000498406802900099012000FA01F10298F8
:1012E0008843029003984068C0F30010009900FA08
:1012F00001F1029808430290029804994860FFE7C0
:1013000003984068032818D0FFE70498C06802904B
:1013100000984100032000FA01F1029888430290EE
:10132000039880680099490000FA01F10298084387
:10133000029002980499C860FFE70398C079C0063C
:10134000002840F19580FFE7009820F0030042F26A
:101350006002C4F2024280580290009800F003003C
:10136000C1000F2000FA01F102988843029004980E
:101370004FF60041CBF6FD510840800A009901F07C
:101380000301C90000FA01F1029808430290029893
:10139000009921F00301885042F20000C4F202409B
:1013A000006802900199029888430290039880791E
:1013B000C006002805D5FFE701990298084302906E
:1013C000FFE7029842F20001C4F20241086042F2D3
:1013D0000400C4F202400068029001990298884318
:1013E0000290039880798006002805D5FFE70199CF
:1013F000029808430290FFE7029842F20401C4F207
:101400000241086042F28400C4F202400068029087
:1014100001990298884302900398807980070028F8
:1014200005D5FFE70199029808430290FFE702986B
:1014300042F28401C4F20241086042F28000C4F228
:101440000240006802900199029888430290039834
:101450008079C00728B1FFE70199029808430290FC
:10146000FFE7029842F28001C4F202410860FFE700
:10147000FFE7009801300090A0E605B0704700003B
:1014800083B00290ADF80610029840690090009A6F
:10149000BDF8060002EA0001904340EA01400299CB
:1014A000886103B07047000082B00190ADF802106F
:1014B0008DF801209DF8010028B1FFE7BDF802007A
:1014C0000199886104E0BDF8020001998862FFE794
:1014D00002B0704740F61830C2F200000068704752
:1014E00083B001900091019890F8410020283BD1F1
:1014F000FFE7FFE7019890F84000012804D1FFE7DB
:1015000002208DF80B0033E00199012081F84000A2
:10151000FFE7FFE70199242081F841000198016865
:10152000086820F00100086001980168086820F44C
:1015300080500860009A01980168086810430860AC
:1015400001980168086840F00100086001992020B6
:1015500081F84100FFE70199002081F84000FFE792
:1015600000208DF80B0003E002208DF80B00FFE750
:101570009DF80B0003B0704784B00290019102986F
:1015800090F84100202840D1FFE7FFE7029890F84B
:101590004000012804D1FFE702208DF80F0038E059
:1015A0000299012081F84000FFE7FFE7029924201B
:1015B00081F8410002980168086820F00100086085
:1015C0000298006800680090009820F47060009015
:1015D0000199009840EA012000900098029909685A
:1015E000086002980168086840F0010008600299EC
:1015F000202081F84100FFE70299002081F8400097
:10160000FFE700208DF80F0003E002208DF80F00A7
:10161000FFE79DF80F0004B07047000080B582B06E
:101620000090009820B9FFE701208DF807007BE0CB
:10163000009890F8410040B9FFE70099002081F838
:101640004000009800F0F4FAFFE70099242081F8A8
:10165000410000980168086820F0010008600098C7
:101660000168406820F0706008610098016888682F
:1016700020F4004088600098C068012807D1FFE787
:1016800000980168806840F40040886006E0009897
:101690000168806840F404408860FFE70098C068F3
:1016A000022807D1FFE700980168486840F400600D
:1016B000486006E000980168486820F400604860CF
:1016C000FFE700980168486848F20002C0F2002273
:1016D0001043486000980168C86820F40040C86062
:1016E000009A1168106953699269184340EA022010
:1016F000C860009A1168D069126A104308600098A7
:101700000168086840F00100086000990020486402
:10171000009A202182F8411000990863009981F80D
:1017200042008DF80700FFE79DF8070002B080BD7A
:1017300010B588B084460C980B98DDF828E0CDF8F9
:1017400018C0ADF81610ADF81420ADF81230ADF891
:101750001000069890F84100202840F02681FFE70D
:101760000A9820B1FFE7BDF8100040B9FFE70699DD
:101770004FF40070486401208DF81F0019E1FFE765
:10178000069890F84000012804D1FFE702208DF868
:101790001F000EE10699012081F84000FFE7FFE7F6
:1017A000FFF798FE0390069803996A4611604FF47C
:1017B00000410122192306F053FE20B1FFE701206A
:1017C0008DF81F00F5E00699222081F84100069966
:1017D000402081F842000699002048640A99069A40
:1017E0005162BDF81010069A518506994863069813
:1017F000BDF81610BDF81420BDF81230DDF830C069
:10180000039CEE46CEF80440CEF800C006F03EFD44
:1018100050B1FFE7FFE70699002081F84000FFE79D
:1018200001208DF81F00C4E00698408DB0F5807F40
:1018300014D3FFE70699FF2008850698BDF8161017
:1018400090F82820EC4642F20043C8F20003CCF89E
:1018500000304FF0807306F0D9FD14E00698408DFB
:10186000069908850698BDF8161090F82820EC46D1
:1018700042F20043C8F20003CCF800304FF000738E
:1018800006F0C4FDFFE7FFE706980C9B03996A4644
:1018900011600421002206F0E3FD20B1FFE70120E2
:1018A0008DF81F0085E006980068406A0699496A2D
:1018B00008700699486A013048620699088D013817
:1018C00008850699488D013848850698408DE8B30B
:1018D000FFE70698008DC8BBFFE706980C9B0399AD
:1018E0006A4611608021002206F0BAFD20B1FFE7B0
:1018F00001208DF81F005CE00698408DB0F5807FD8
:1019000011D3FFE70699FF2008850698BDF8161049
:1019100090F82820EC460023CCF800304FF080737C
:1019200006F074FD11E00698408D0699088506982A
:10193000BDF8161090F82820EC460023CCF80030B3
:101940004FF0007306F062FDFFE7FFE7FFE7069840
:10195000408D002898D1FFE706980C99039A06F06D
:10196000E1FD20B1FFE701208DF81F0021E006987E
:1019700001682020C86106990A6851684EF6000384
:10198000CFF6006319405160069981F8410006992D
:10199000002081F84200FFE70699002081F840000E
:1019A000FFE700208DF81F0003E002208DF81F00E4
:1019B000FFE79DF81F0008B010BD000010B588B00B
:1019C00084460C980B98DDF828E0CDF818C0ADF8E7
:1019D0001610ADF81420ADF81230ADF810000698CE
:1019E00090F84100202840F01B81FFE70A9820B1C1
:1019F000FFE7BDF8100040B9FFE706994FF400700B
:101A0000486401208DF81F000EE1FFE7069890F86A
:101A10004000012804D1FFE702208DF81F0003E1F8
:101A20000699012081F84000FFE7FFE7FFF752FD2C
:101A30000390069803996A4611604FF40041012211
:101A4000192306F00DFD20B1FFE701208DF81F00DE
:101A5000EAE00699212081F841000699402081F8AA
:101A600042000699002048640A99069A5162BDF81E
:101A70001010069A5185069948630698BDF816100D
:101A8000BDF81420BDF81230DDF830C0039CEE46DE
:101A9000CEF80440CEF800C006F058FC50B1FFE785
:101AA000FFE70699002081F84000FFE701208DF84C
:101AB0001F00B9E00698408DB0F5807F11D3FFE795
:101AC0000699FF2008850698BDF8161090F8282082
:101AD000EC460023CCF800304FF0807306F096FC03
:101AE00011E00698408D069908850698BDF81610F5
:101AF00090F82820EC460023CCF800304FF000731B
:101B000006F084FCFFE7FFE706980C99039A06F0BD
:101B10005BFD20B1FFE701208DF81F0084E00698EF
:101B20000168406A007888620699486A0130486214
:101B30000699488D013848850699088D0138088531
:101B40000698408DE8B3FFE70698008DC8BBFFE715
:101B500006980C9B03996A4611608021002206F0CA
:101B60007FFC20B1FFE701208DF81F005CE00698A4
:101B7000408DB0F5807F11D3FFE70699FF200885DF
:101B80000698BDF8161090F82820EC460023CCF8F3
:101B900000304FF0807306F039FC11E00698408D5C
:101BA000069908850698BDF8161090F82820EC468E
:101BB0000023CCF800304FF0007306F027FCFFE75D
:101BC000FFE7FFE70698408D00289DD1FFE70698C4
:101BD0000C99039A06F0A6FC20B1FFE701208DF8CE
:101BE0001F0021E0069801682020C86106990A6854
:101BF00051684EF60003CFF6006319405160069914
:101C000081F841000699002081F84200FFE706991B
:101C1000002081F84000FFE700208DF81F0003E05E
:101C200002208DF81F00FFE79DF81F0008B010BDCF
:101C300080B5AAB029900020289027902690259062
:101C4000249002A88821FEF76FFB2998006845F2CE
:101C50000041C4F2000188423DD1FFE7002003901B
:101C60004FF400510291139002A801F089FC18B1C1
:101C7000FFE7FEF7D5FEFFE7FFE740F68C40C4F232
:101C80000240016841F002010160006800F00200BA
:101C900001900198FFE7C020249012202590002099
:101CA000269027900420289040F20040C4F20220A1
:101CB00024A9FFF77DFAFFE740F69C40C4F20240FA
:101CC000016841F400110160006800F40010009008
:101CD0000098FFE7FFE72AB080BD000082B00190C6
:101CE00000208DF8030040F20040C4F203000068B9
:101CF000C00720B1FFE701208DF803000AE040F2A1
:101D00000041C4F20301086820F00400019A104366
:101D10000860FFE79DF8030002B0704780B582B00D
:101D200000208DF8070040F20C41C4F203010220AC
:101D3000086040F20041C4F20301086820F001008D
:101D40000860FFF7C7FB0090FFE740F20040C4F2D5
:101D500003000068C007A8B1FFE7FFF7BBFB0099CD
:101D6000401A02280DD3FFE740F20040C4F20300FE
:101D70000068C00720B1FFE703208DF8070001E0ED
:101D8000FFE7E2E79DF8070002B080BD40F20041A6
:101D9000C4F20301086840F00100086000207047A9
:101DA00040F2EE10C2F20000027840F61831C2F2A2
:101DB00000010868104408607047000080B582B0D8
:101DC000032000F0E3F802F0C9FB40F62041C4F222
:101DD0000241096801F00F024DF65C21C0F60001D6
:101DE000895CC84040F28C01C2F200010860042006
:101DF00003F052FB0F2000F011F820B1FFE70120A3
:101E00008DF8070005E000F093F800208DF807003A
:101E1000FFE79DF8070002B080BD000080B586B0E6
:101E200004900020039040F2EE10C2F2000000780F
:101E300020B9FFE701208DF8170075E04EF2100081
:101E4000CEF2000000684007002812D5FFE740F2FC
:101E50008C00C2F20000006840F2EE11C2F20001F4
:101E60000A784FF47A71B1FBF2F1B0FBF1F0039014
:101E700040E003F00FFC02900298019040B1FFE7B0
:101E80000198012816D0FFE70198022821D02FE001
:101E900040F28C00C2F20000006840F2EE11C2F283
:101EA00000010A784FF4FA51B1FBF2F1B0FBF1F006
:101EB00003901EE040F2EE10C2F2000001784FF4F1
:101EC0007A70B0FBF1F14FF4FA40B0FBF1F00390FF
:101ED0000FE040F2EE10C2F2000001784FF47A7089
:101EE000B0FBF1F14FF40040B0FBF1F0039000E0E3
:101EF000FFE7FFE7039803F0A7FB20B1FFE701200E
:101F00008DF8170010E004994FF0FF300022009286
:101F100000F024F80098049940F2F012C2F2000296
:101F200011608DF81700FFE79DF8170006B080BD1F
:101F30007047000080B582B0ADF80600BDF906001C
:101F400009F08CFD02B080BD80B582B0ADF806000E
:101F5000BDF9060009F09EFD02B080BD80B586B0D7
:101F6000ADF816000491039209F0ACFD0290BDF9A2
:101F70001600019002980499039A07F02FFA01467F
:101F8000019809F0A7FD06B080BD000080B582B0C1
:101F90000190019809F0C0FD02B080BD09F0DAFDA2
:101FA00089B0089040F63440C4F2024000686FF3F4
:101FB0005F20059040F62840C4F20240016801F01D
:101FC000030107910168C1F305210691006800F043
:101FD00010000490049840F63841C4F202410968A8
:101FE00089B2C90800FB01F000EE100AB8EE400A01
:101FF0008DED020A0698002800F03D81FFE7079862
:102000000090012808D0FFE70098022830D0FFE7B1
:102010000098032849D065E040F60040C4F2024031
:102020000068C0F3C10149F20000C0F2D030C840DE
:1020300003909DED030AB8EE400A9DED061AB8EE36
:10204000411A80EE010A9DED051AB8EE411A9DED88
:10205000022A9FED8F3A22EE032A31EE021AB7EEE2
:10206000002A31EE021A20EE010A8DED010A65E028
:102070009DED060AB8EE401A9FED860A80EE010A31
:102080009DED051AB8EE411A9DED022A9FED803AAA
:1020900022EE032A31EE021AB7EE002A31EE021ABE
:1020A00020EE010A8DED010A48E09DED060AB8EE2A
:1020B000401A9FED760A80EE010A9DED051AB8EEF2
:1020C000411A9DED022A9FED723A22EE032A31EE6B
:1020D000021AB7EE002A31EE021A20EE010A8DED47
:1020E000010A2BE040F60040C4F202400068C0F351
:1020F000C10149F20000C0F2D030C84003909DED0C
:10210000030AB8EE400A9DED061AB8EE411A80EEB9
:10211000010A9DED051AB8EE411A9DED022A9FEDC8
:102120005C3A22EE032A31EE021AB7EE002A31EEB3
:10213000021A20EE010A8DED010AFFE740F6004089
:10214000C4F2024000688001002827D5FFE740F66E
:102150002840C4F202400068C003002819D5FFE7F8
:102160009DED010A40F63440C4F20240006880B29E
:10217000400A01EE100AB8EE411AB7EE002A31EE1D
:10218000021A80EE010A0898BCEEC00A80ED000A2F
:1021900003E0089900200860FFE703E008990020A9
:1021A0000860FFE740F60040C4F20240006880018A
:1021B000002827D5FFE740F62840C4F20240006817
:1021C0008003002819D5FFE79DED010A40F6344051
:1021D000C4F202400068C0F3064001EE100AB8EEF7
:1021E000411AB7EE002A31EE021A80EE010A089871
:1021F000BCEEC00A80ED010A03E0089900204860A7
:10220000FFE703E0089900204860FFE740F6004040
:10221000C4F2024000688001002827D5FFE740F69D
:102220002840C4F2024000684003002819D5FFE7A7
:102230009DED010A40F63440C4F202400068C0F34C
:10224000066001EE100AB8EE411AB7EE002A31EE30
:10225000021A80EE010A0898BCEEC00A80ED020A5C
:1022600003E0089900208860FFE703E00899002058
:102270008860FFE707E00899002008600899486037
:1022800008998860FFE709B0704700BF20BCBE4BCB
:10229000000000390024744A89B0089040F63C40A0
:1022A000C4F2024000686FF35F20059040F62C40B6
:1022B000C4F20240016801F0030107910168C1F313
:1022C00005210691006800F010000490049840F683
:1022D0004041C4F20241096889B2C90800FB01F01B
:1022E00000EE100AB8EE400A8DED020A06980028AA
:1022F00000F03D81FFE707980090012808D0FFE734
:102300000098022830D0FFE70098032849D065E004
:1023100040F60040C4F202400068C0F3C10149F237
:102320000000C0F2D030C84003909DED030AB8EE23
:10233000400A9DED061AB8EE411A80EE010A9DEDA5
:10234000051AB8EE411A9DED022A9FED8F3A22EE52
:10235000032A31EE021AB7EE002A31EE021A20EEFD
:10236000010A8DED010A65E09DED060AB8EE401AFE
:102370009FED860A80EE010A9DED051AB8EE411A1E
:102380009DED022A9FED803A22EE032A31EE021AD9
:10239000B7EE002A31EE021A20EE010A8DED010A95
:1023A00048E09DED060AB8EE401A9FED760A80EEF1
:1023B000010A9DED051AB8EE411A9DED022A9FED26
:1023C000723A22EE032A31EE021AB7EE002A31EEFB
:1023D000021A20EE010A8DED010A2BE040F60040C2
:1023E000C4F202400068C0F3C10149F20000C0F22B
:1023F000D030C84003909DED030AB8EE400A9DED31
:10240000061AB8EE411A80EE010A9DED051AB8EEE3
:10241000411A9DED022A9FED5C3A22EE032A31EE2D
:10242000021AB7EE002A31EE021A20EE010A8DEDF3
:10243000010AFFE740F60040C4F2024000680001D4
:10244000002827D5FFE740F62C40C4F20240006880
:10245000C003002819D5FFE79DED010A40F63C4076
:10246000C4F20240006880B2400A01EE100AB8EEE1
:10247000411AB7EE002A31EE021A80EE010A0898DE
:10248000BCEEC00A80ED000A03E008990020086055
:10249000FFE703E0089900200860FFE740F60040EE
:1024A000C4F2024000680001002827D5FFE740F68B
:1024B0002C40C4F2024000688003002819D5FFE7D1
:1024C0009DED010A40F63C40C4F202400068C0F3B2
:1024D000064001EE100AB8EE411AB7EE002A31EEBE
:1024E000021A80EE010A0898BCEEC00A80ED010ACB
:1024F00003E0089900204860FFE703E00899002006
:102500004860FFE740F60040C4F202400068000166
:10251000002827D5FFE740F62C40C4F202400068AF
:102520004003002819D5FFE79DED010A40F63C4025
:10253000C4F202400068C0F3066001EE100AB8EE73
:10254000411AB7EE002A31EE021A80EE010A08980D
:10255000BCEEC00A80ED020A03E008990020886002
:10256000FFE703E0089900208860FFE707E008998B
:10257000002008600899486008998860FFE709B062
:10258000704700BF20BCBE4B000000390024744AD5
:1025900080B592B0119110901098119980F0007050
:1025A000084300285BD1FFE740F6F040C4F2024048
:1025B000016801F44071079100688007002809D57F
:1025C000FFE70798B0F5807F04D1FFE74FF40040A4
:1025D000099042E040F6F040C4F202400068000179
:1025E000002809D5FFE70798B0F5007F04D1FFE781
:1025F0004FF4FA4009902FE040F60040C4F2024048
:1026000000688003002823D5FFE70798B0F5407FD6
:102610001ED1FFE740F61C40C4F20240006800F4FF
:102620007C50B0F5007F0FD3FFE740F61C40C4F2AA
:1026300002400068C0F3052147F64000C0F27D105B
:10264000B0FBF1F0099002E000200990FFE702E002
:1026500000200990FFE7FFE7FFE700F08EBF10982A
:1026600005901199069180F001000843002800F0C0
:102670009B80FFE70699059880F002000843002838
:1026800000F0FC80FFE70699059880F004000843FD
:10269000002800F05D81FFE70699059880F48050DE
:1026A0000843002800F0C081FFE70699059880F4F0
:1026B00000500843002800F0B782FFE7069905980C
:1026C00080F480400843002800F00083FFE706996B
:1026D000059880F480300843002800F04983FFE724
:1026E0000699059880F400300843002800F0B9836B
:1026F000FFE70699059880F480200843002800F041
:102700005084FFE70699059880F4001008430028DC
:1027100000F0EF81FFE70699059880F0806008439C
:10272000002800F09286FFE70699059880F0006087
:102730000843002800F00B85FFE70699059880F014
:1027400080500843002800F07A85FFE70699059835
:1027500080F000500843002800F0F885FFE7059856
:10276000069981F004010843002800F0BA84FFE7CD
:102770000598069981F010010843002800F0BB86F7
:10278000FFE70598069981F400710843002800F0DE
:102790001C82FFE70598069981F4805108430028C0
:1027A00000F0238300F0E5BE40F6D840C4F20240BA
:1027B000006800F007000790079820B9FFE701F0D4
:1027C000A5FE099058E040F60040C4F202400068BF
:1027D000000100280AD5FFE70798012806D1FFE786
:1027E0000AA8FFF759FD0B98099044E040F6004015
:1027F000C4F2024000688007002812D5FFE707985E
:1028000003280ED1FFE740F60040C4F20240006802
:10281000C0F3C10149F20000C0F2D030C8400990B5
:1028200028E040F60040C4F202400068800500281D
:102830000AD5FFE70798042806D1FFE740F6001005
:10284000C0F23D00099014E040F6F040C4F20240AE
:1028500000688007002808D5FFE70798052804D1FD
:10286000FFE74FF40040099002E000200990FFE7E5
:10287000FFE7FFE7FFE7FFE700F07EBE40F6D84046
:10288000C4F20240006800F038000790079820B9B1
:10289000FFE701F027FE099058E040F60040C4F23F
:1028A00002400068000100280AD5FFE707980828C1
:1028B00006D1FFE70AA8FFF7EFFC0B98099044E068
:1028C00040F60040C4F2024000688007002812D59C
:1028D000FFE7079818280ED1FFE740F60040C4F242
:1028E00002400068C0F3C10149F20000C0F2D030DC
:1028F000C840099028E040F60040C4F20240006859
:10290000800500280AD5FFE70798202806D1FFE7B1
:1029100040F60010C0F23D00099014E040F6F0408F
:10292000C4F2024000688007002808D5FFE7079836
:10293000282804D1FFE74FF40040099002E000206E
:102940000990FFE7FFE7FFE7FFE7FFE700F014BEAE
:1029500040F6D840C4F20240006800F4E0700790EE
:10296000079820B9FFE701F0BDFD09905AE040F655
:102970000040C4F202400068000100280AD5FFE7C9
:102980000798402806D1FFE70AA8FFF785FC0B98B7
:10299000099046E040F60040C4F20240006880071B
:1029A000002812D5FFE70798C0280ED1FFE740F6B0
:1029B0000040C4F202400068C0F3C10149F20000C7
:1029C000C0F2D030C84009902AE040F60040C4F27E
:1029D00002400068800500280BD5FFE70798B0F596
:1029E000807F06D1FFE740F60010C0F23D0009905D
:1029F00015E040F6F040C4F202400068800700286D
:102A000009D5FFE70798B0F5A07F04D1FFE74FF4A1
:102A10000040099002E000200990FFE7FFE7FFE790
:102A2000FFE7FFE700F0A8BD40F6E040C4F2024037
:102A3000006800F0E0600790079820B9FFE701F018
:102A400079FD099053E00798B0F1807F06D1FFE748
:102A50000AA8FFF721FC0B98099047E040F60040D8
:102A6000C4F2024000688007002813D5FFE70798EA
:102A7000B0F1407F0ED1FFE740F60040C4F20240C3
:102A80000068C0F3C10149F20000C0F2D030C84074
:102A900009902AE040F60040C4F202400068800538
:102AA00000280BD5FFE70798B0F1806F06D1FFE74C
:102AB00040F60010C0F23D00099015E040F6F040ED
:102AC000C4F2024000688007002809D5FFE7079894
:102AD000B0F1A06F04D1FFE74FF40040099002E08D
:102AE00000200990FFE7FFE7FFE7FFE7FFE700F0BF
:102AF00043BD40F6E840C4F20240006800F0070021
:102B00000790079820B9FFE701F0D2FC09905AE03E
:102B10000798012804D1FFE701F020FD099051E05A
:102B20000798022806D1FFE70AA8FFF7B5FB0C9823
:102B3000099046E040F60040C4F20240006880037D
:102B400000280AD5FFE70798032806D1FFE747F6D4
:102B50004000C0F27D10099032E040F60040C4F21F
:102B6000024000688007002812D5FFE70798042874
:102B70000ED1FFE740F60040C4F202400068C0F307
:102B8000C10149F20000C0F2D030C840099016E0FF
:102B900040F60040C4F202400068800500280AD5D3
:102BA000FFE70798052806D1FFE740F60010C0F2BE
:102BB0003D00099002E000200990FFE7FFE7FFE7F2
:102BC000FFE7FFE7FFE700F0D7BC40F6E840C4F2BC
:102BD0000240006800F00800079040F6F040C4F2A0
:102BE000024000688007002807D5FFE7079820B952
:102BF000FFE74FF40040099014E040F6F040C4F2C3
:102C0000024000680001002808D5FFE7079808285F
:102C100004D1FFE74FF4FA40099002E00020099048
:102C2000FFE7FFE700F0A8BC40F6E440C4F2024032
:102C3000006800F440300790079820B9FFE701F0E2
:102C400051FC099040E00798B0F5803F06D1FFE7BE
:102C50000AA8FFF721FB0C98099034E040F60040E9
:102C6000C4F2024000688007002813D5FFE70798E8
:102C7000B0F5003F0ED1FFE740F60040C4F202403D
:102C80000068C0F3C10149F20000C0F2D030C84072
:102C9000099017E040F60040C4F202400068800549
:102CA00000280BD5FFE70798B0F5403F06D1FFE7B6
:102CB00040F60010C0F23D00099002E000200990AB
:102CC000FFE7FFE7FFE7FFE700F056BC40F6E44010
:102CD000C4F20240006800F440200790079820B931
:102CE000FFE701F0FFFB099040E00798B0F5802F67
:102CF00006D1FFE70AA8FFF7CFFA0C98099034E055
:102D000040F60040C4F2024000688007002813D556
:102D1000FFE70798B0F5002F0ED1FFE740F600401F
:102D2000C4F202400068C0F3C10149F20000C0F2E1
:102D3000D030C840099017E040F60040C4F202408D
:102D40000068800500280BD5FFE70798B0F5402FF5
:102D500006D1FFE740F60010C0F23D00099002E006
:102D600000200990FFE7FFE7FFE7FFE700F004BC62
:102D700040F6E440C4F20240006800F04070079062
:102D8000079820B9FFE701F0ADFB09902BE0079809
:102D9000B0F1807F06D1FFE70AA8FFF77DFA0C9813
:102DA00009901FE040F60040C4F20240006880072E
:102DB000002813D5FFE70798B0F1007F0ED1FFE799
:102DC00040F60040C4F202400068C0F3C10149F27D
:102DD0000000C0F2D030C840099002E00020099005
:102DE000FFE7FFE7FFE700F0C7BB40F6E440C4F2AF
:102DF0000240006800F040600790079820B9FFE7A4
:102E000001F098FB09902BE00798B0F1806F06D194
:102E1000FFE70AA8FFF740FA0C9809901FE040F678
:102E20000040C4F2024000688007002813D5FFE785
:102E30000798B0F1006F0ED1FFE740F60040C4F2F2
:102E400002400068C0F3C10149F20000C0F2D03076
:102E5000C840099002E000200990FFE7FFE7FFE784
:102E60008AE340F6DC40C4F20240006800F4E0600F
:102E7000079007980490A0B1FFE70498B0F5807F11
:102E800013D0FFE70498B0F5407F14D0FFE7049813
:102E9000B0F5806F20D0FFE70498B0F5A06F2CD07C
:102EA0007BE001F047FB09907AE00AA8FFF7F4F90C
:102EB0000A98099074E040F6F040C4F202400068BD
:102EC0008007002804D5FFE74FF40040099002E096
:102ED00000200990FFE763E040F6F040C4F20240B2
:102EE00000680001002804D5FFE74FF4FA4009907C
:102EF00002E000200990FFE752E040F6E840C4F20B
:102F00000240006800F04040089040F60040C4F2E3
:102F1000024000688007002811D5FFE7089870B9C3
:102F2000FFE740F60040C4F202400068C0F3C10170
:102F300049F20000C0F2D030C84009902CE040F6C1
:102F40000040C4F202400068800500280BD5FFE76E
:102F50000898B0F1804F06D1FFE740F60010C0F2AC
:102F60003D00099017E040F60040C4F202400068BE
:102F7000800300280BD5FFE70898B0F1004F06D179
:102F8000FFE747F64000C0F27D10099002E0002004
:102F90000990FFE7FFE7FFE702E000200990FFE765
:102FA000EAE240F6DC40C4F20240006800F4E0408F
:102FB000079007980390A0B1FFE70398B0F5805FF2
:102FC00013D0FFE70398B0F5405F14D0FFE70398F4
:102FD000B0F5804F20D0FFE70398B0F5A04F2CD07C
:102FE0007BE001F07FFA09907AE00AA8FFF754F934
:102FF0000A98099074E040F6F040C4F2024000687C
:103000008007002804D5FFE74FF40040099002E054
:1030100000200990FFE763E040F6F040C4F2024070
:1030200000680001002804D5FFE74FF4FA4009903A
:1030300002E000200990FFE752E040F6E840C4F2C9
:103040000240006800F04040089040F60040C4F2A2
:10305000024000688007002811D5FFE7089870B982
:10306000FFE740F60040C4F202400068C0F3C1012F
:1030700049F20000C0F2D030C84009902CE040F680
:103080000040C4F202400068800500280BD5FFE72D
:103090000898B0F1804F06D1FFE740F60010C0F26B
:1030A0003D00099017E040F60040C4F2024000687D
:1030B000800300280BD5FFE70898B0F1004F06D138
:1030C000FFE747F64000C0F27D10099002E00020C3
:1030D0000990FFE7FFE7FFE702E000200990FFE724
:1030E0004AE240F6E840C4F20240006800F4407052
:1030F000079040F60040C4F20240006880030028B8
:1031000009D5FFE7079830B9FFE747F64000C0F25E
:103110007D1009901AE00798B0F5807F06D1FFE78F
:103120000DA8FEF73DFF0E9809900EE00798B0F548
:10313000007F06D1FFE70AA8FFF7AEF80B980990C9
:1031400002E000200990FFE7FFE7FFE714E240F606
:10315000E040C4F20240006800F0070007900798C2
:103160000290042867D80299DFE801F00309650F8F
:1031700015000DA8FEF714FF0E9809905EE00AA84E
:10318000FFF78AF80A98099058E048F20000C0F268
:10319000BB00099052E040F6E840C4F202400068EB
:1031A00000F04040089040F60040C4F20240006841
:1031B0008007002811D5FFE7089870B9FFE740F6AF
:1031C0000040C4F202400068C0F3C10149F20000AF
:1031D000C0F2D030C84009902CE040F60040C4F264
:1031E00002400068800500280BD5FFE70898B0F181
:1031F000804F06D1FFE740F60010C0F23D00099075
:1032000017E040F60040C4F2024000688003002846
:103210000BD5FFE70898B0F1004F06D1FFE747F65E
:103220004000C0F27D10099002E000200990FFE705
:10323000FFE7FFE702E000200990FFE79CE140F68E
:10324000E040C4F20240006800F0380007900798A0
:103250000190202800F276800199DFE801F01173D7
:10326000737373737373177373737373737373738A
:103270007373737373731D73737373737373230037
:103280000DA8FEF78DFE0E9809905EE00AA8FFF7E4
:1032900003F80A98099058E048F20000C0F2BB0019
:1032A000099052E040F6E840C4F20240006800F0A5
:1032B0004040089040F60040C4F202400068800799
:1032C000002811D5FFE7089870B9FFE740F60040E5
:1032D000C4F202400068C0F3C10149F20000C0F22C
:1032E000D030C84009902CE040F60040C4F20240C3
:1032F0000068800500280BD5FFE70898B0F1804FE3
:1033000006D1FFE740F60010C0F23D00099017E03B
:1033100040F60040C4F202400068800300280BD54C
:10332000FFE70898B0F1004F06D1FFE747F64000ED
:10333000C0F27D10099002E000200990FFE7FFE74E
:10334000FFE702E000200990FFE715E140F6E040CA
:10335000C4F20240006800F4E07007900798009003
:1033600068B1FFE7009840280FD0FFE70098C02819
:1033700011D0FFE70098B0F5807F12D061E00DA872
:10338000FEF70EFE0E9809905EE00AA8FEF784FF95
:103390000A98099058E048F20000C0F2BB0009907A
:1033A00052E040F6E840C4F20240006800F04040BD
:1033B000089040F60040C4F20240006880070028F0
:1033C00011D5FFE7089870B9FFE740F60040C4F256
:1033D00002400068C0F3C10149F20000C0F2D030E1
:1033E000C84009902CE040F60040C4F2024000685A
:1033F000800500280BD5FFE70898B0F1804F06D173
:10340000FFE740F60010C0F23D00099017E040F6DB
:103410000040C4F202400068800300280BD5FFE79B
:103420000898B0F1004F06D1FFE747F64000C0F220
:103430007D10099002E000200990FFE7FFE7FFE719
:1034400002E000200990FFE796E040F6E840C4F271
:103450000240006800F03000079040F60040C4F2DF
:10346000024000688004002809D5FFE7079830B9BA
:10347000FFE746F60040C0F2DC2009903AE040F653
:103480000040C4F202400068800100280AD5FFE72E
:103490000798102806D1FFE70DA8FEF781FD0E98CA
:1034A000099026E040F6F040C4F202400068800730
:1034B000002808D5FFE70798202804D1FFE74FF43C
:1034C0000040099014E040F6F040C4F20240006869
:1034D0000001002808D5FFE70798302804D1FFE74E
:1034E0004FF4FA40099002E000200990FFE7FFE75F
:1034F000FFE7FFE740E040F6E440C4F20240006826
:1035000000F0300007900798102806D1FFE70DA8BB
:10351000FEF746FD0E9809902EE040F60040C4F2FA
:1035200002400068000100280AD5FFE7079820281C
:1035300006D1FFE70AA8FEF7AFFE0B98099016E048
:1035400040F60040C4F202400068800400280AD51A
:10355000FFE70798302806D1FFE746F60040C0F2A3
:10356000DC20099002E000200990FFE7FFE7FFE779
:1035700002E000200990FFE7FFE7099812B080BD44
:1035800080B596B0159000208DF84B008DF84A005C
:103590001598C078C00760B1FFE740F6E841C4F273
:1035A0000241086820F04040159A126B10430860F1
:1035B000FFE715980068C00780B3FFE71598406BD8
:1035C0001190052810D81199DFE801F003040E0BC3
:1035D0000C0D0DE01598083006F060FB8DF84B00DF
:1035E00006E005E004E003E001208DF84B00FFE772
:1035F0009DF84B0060B9FFE740F6D841C4F20241A4
:10360000086820F00700159A526B1043086004E028
:103610009DF84B008DF84A00FFE7FFE7159800780A
:103620008007002840F14380FFE71598806B1090D9
:10363000282822D81099DFE801F01520202020202A
:103640002020162020202020202020202020202084
:1036500020201D202020202020201E20202020206F
:1036600020201F000DE01598083006F017FB8DF89C
:103670004B0006E005E004E003E001208DF84B007C
:10368000FFE79DF84B0060B9FFE740F6D841C4F270
:103690000241086820F03800159A926B10430860C8
:1036A00004E09DF84B008DF84A00FFE7FFE715980E
:1036B0000078400700283CD5FFE71598C06B0F90B5
:1036C00090B1FFE70F9840280FD0FFE70F98C02870
:1036D00012D0FFE70F98B0F5807F0ED0FFE70F986C
:1036E000B0F5A07F0AD00AE00DE01598083006F08A
:1036F000D5FA8DF84B0006E005E004E003E0012078
:103700008DF84B00FFE79DF84B0060B9FFE740F6EE
:10371000D841C4F20241086820F4E070159AD26BD7
:103720001043086004E09DF84B008DF84A00FFE765
:10373000FFE715984078C00600283ED5FFE71598AA
:10374000006C0E90A0B1FFE70E98B0F1807F10D012
:10375000FFE70E98B0F1407F12D0FFE70E98B0F16E
:10376000806F0ED0FFE70E98B0F1A06F0AD00AE08C
:103770000DE01598083006F091FA8DF84B0006E040
:1037800005E004E003E001208DF84B00FFE79DF821
:103790004B0060B9FFE740F6E041C4F2024108681F
:1037A00020F0E060159A126C1043086004E09DF868
:1037B0004B008DF84A00FFE7FFE715984078800638
:1037C000002838D5FFE71598406C0D9078B1FFE7D9
:1037D0000D98B0F5803F0BD0FFE70D98B0F5003F96
:1037E0000DD0FFE70D98B0F5403F09D009E00CE09F
:1037F0001598083006F052FA8DF84B0005E004E009
:1038000003E001208DF84B00FFE79DF84B0060B905
:10381000FFE740F6E441C4F20241086820F440307A
:10382000159A526C1043086004E09DF84B008DF827
:103830004A00FFE7FFE7159840784006002838D592
:10384000FFE71598806C0C9078B1FFE70C98B0F505
:10385000802F0BD0FFE70C98B0F5002F0DD0FFE7BD
:103860000C98B0F5402F09D009E00CE0159808300D
:1038700006F014FA8DF84B0005E004E003E00120A7
:103880008DF84B00FFE79DF84B0060B9FFE740F66D
:10389000E441C4F20241086820F44020159A926C79
:1038A0001043086004E09DF84B008DF84A00FFE7E4
:1038B000FFE715988078C00790B3FFE71598C06CB4
:1038C0000B9050B1FFE70B98B0F1807F06D0FFE777
:1038D0000B98B0F1007F08D008E00BE01598083095
:1038E00006F0DCF98DF84B0004E003E001208DF8D0
:1038F0004B00FFE79DF84B0060B9FFE740F6E4415D
:10390000C4F20241086820F04070159AD26C10434E
:10391000086004E09DF84B008DF84A00FFE7FFE7E0
:1039200015984079C006002832D5FFE71598006D3C
:103930000A9050B1FFE70A98B0F1806F06D0FFE718
:103940000A98B0F1006F08D008E00BE01598083035
:1039500006F0A4F98DF84B0004E003E001208DF897
:103960004B00FFE79DF84B0060B9FFE740F6E441EC
:10397000C4F20241086820F04060159A126D1043AD
:10398000086004E09DF84B008DF84A00FFE7FFE770
:10399000159840790007002811D5FFE7FFE740F6AA
:1039A0001C41C4F20241086820F4004008601598E8
:1039B000D0F88020086810430860FFE7FFE71598FB
:1039C0008078800700283ED5FFE71598406D099064
:1039D000A0B1FFE70998B0F5807F10D0FFE7099804
:1039E000B0F5407F12D0FFE70998B0F5806F0ED098
:1039F000FFE70998B0F5A06F0AD00AE00DE015982E
:103A0000083006F04BF98DF84B0006E005E004E0C5
:103A100003E001208DF84B00FFE79DF84B0060B9F3
:103A2000FFE740F6DC41C4F20241086820F4E060A0
:103A3000159A526D1043086004E09DF84B008DF814
:103A40004A00FFE7FFE715988078400700283ED539
:103A5000FFE71598806D0890A0B1FFE70898B0F5D2
:103A6000805F10D0FFE70898B0F5405F12D0FFE705
:103A70000898B0F5804F0ED0FFE70898B0F5A04F3A
:103A80000AD00AE00DE01598083006F007F98DF825
:103A90004B0006E005E004E003E001208DF84B0058
:103AA000FFE79DF84B0060B9FFE740F6DC41C4F248
:103AB0000241086820F4E040159A926D10430860B6
:103AC00004E09DF84B008DF84A00FFE7FFE71598EA
:103AD00080788006002832D5FFE71598406E079061
:103AE000022809D3FFE70798022806D0FFE70798C6
:103AF0000338032808D308E00BE01598083006F0D7
:103B0000CDF88DF84B0004E003E001208DF84B0068
:103B1000FFE79DF84B0060B9FFE740F6E841C4F2CB
:103B20000241086820F00700159A526E10430860A1
:103B300004E09DF84B008DF84A00FFE7FFE7159879
:103B400040798007002825D5FFE71598806E0690FC
:103B500020B1FFE70698082801D001E004E003E067
:103B600001208DF84B00FFE79DF84B0060B9FFE79F
:103B700040F6E841C4F20241086820F00800159AB6
:103B8000926E1043086004E09DF84B008DF84A00E7
:103B9000FFE7FFE71598C0788007002840F1B18063
:103BA000FFE740F62401C4F20241086840F001003A
:103BB0000860FDF78FFC1390FFE740F62400C4F285
:103BC00002400068C00760B9FFE7FDF783FC139966
:103BD000401A032804D3FFE703208DF84B0000E0D0
:103BE000EBE79DF84B00002840F08580FFE740F6AA
:103BF000F040C4F20240006800F440701490149841
:103C0000C8B1FFE714981599896F884213D0FFE770
:103C100040F6F041C4F20241086820F4407014906C
:103C2000086840F480300860086820F4803008603C
:103C300014980860FFE79DF85000C007E0B1FFE767
:103C4000FDF748FC1390FFE740F6F040C4F2024055
:103C50000068800700280ED4FFE7FDF73BFC1399AE
:103C6000401A41F28931884204D3FFE703208DF8DE
:103C70004B0000E0E8E7FFE79DF84B00A8BBFFE73B
:103C8000FFE71598806F00F44070B0F5407F12D1C7
:103C9000FFE740F61C41C4F20241086820F47C5062
:103CA000159A926F4FF6F043C0F6FF731A4040EA40
:103CB0001210086008E040F61C41C4F20241086896
:103CC00020F47C500860FFE740F6F041C4F2024166
:103CD000086820F4407008601598826F6FF31F32F7
:103CE000086810430860FFE704E09DF84B008DF87A
:103CF0004A00FFE704E09DF84B008DF84A00FFE71B
:103D0000FFE71598C0784007002837D5FFE71598DA
:103D1000006E059060B1FFE70598102809D0FFE715
:103D2000059820280ED0FFE7059830280BD00BE02F
:103D30000EE040F62841C4F20241086840F4003029
:103D4000086005E004E003E001208DF84B00FFE788
:103D50009DF84B0060B9FFE740F6E841C4F202412C
:103D6000086820F03000159A126E1043086004E0D5
:103D70009DF84B008DF84A00FFE7FFE71598C078E3
:103D80000007002837D5FFE71598C06E0490042877
:103D900017D80499DFE801F0030C1513140040F65E
:103DA0002841C4F20241086840F4003008600CE089
:103DB0001598083005F072FF8DF84B0005E004E01F
:103DC00003E001208DF84B00FFE79DF84B0060B940
:103DD000FFE740F6E041C4F20241086820F0070026
:103DE000159AD26E1043086004E09DF84B008DF8E0
:103DF0004A00FFE7FFE71598C078C006002845D5C0
:103E0000FFE71598006F0390202825D80399DFE875
:103E100001F011232323232323231A2323232323E2
:103E20002323232323232323232321232323232364
:103E30002323220040F62841C4F20241086840F4DE
:103E4000003008600CE01598083005F027FF8DF869
:103E50004B0005E004E003E001208DF84B00FFE794
:103E60009DF84B0060B9FFE740F6E041C4F2024123
:103E7000086820F03800159A126F1043086004E0BB
:103E80009DF84B008DF84A00FFE7FFE71598C078D2
:103E9000800600283ED5FFE71598406F029068B174
:103EA000FFE70298402812D0FFE70298C02815D0FB
:103EB000FFE70298B0F5807F11D011E040F628416D
:103EC000C4F20241086840F4003008600CE0159824
:103ED000083005F0E3FE8DF84B0005E004E003E058
:103EE00001208DF84B00FFE79DF84B0060B9FFE71C
:103EF00040F6E041C4F20241086820F4E070159AEF
:103F0000526F1043086004E09DF84B008DF84A00A2
:103F1000FFE7FFE715980079400700283AD5FFE74B
:103F20001598C06D019050B1FFE70198B0F5807F02
:103F300006D0FFE70198B0F5007F0AD010E013E04B
:103F400040F62841C4F20241086840F4003008609D
:103F50000AE01598083005F0A1FE8DF84B0003E04B
:103F600001208DF84B00FFE79DF84B0060B9FFE79B
:103F700040F6E841C4F20241086820F44070159A06
:103F8000D26D1043086004E09DF84B008DF84A00A4
:103F9000FFE7FFE715980079C006002839D5FFE74D
:103FA0001598C06F0090102808D0FFE700982028CF
:103FB0000DD0FFE70098302810D010E040F62841DF
:103FC000C4F20241086840F4003008600BE0159824
:103FD000083005F063FE8DF84B0004E003E001209B
:103FE0008DF84B00FFE79DF84B0060B9FFE740F606
:103FF000E441C4F20241086820F03000159AD26F03
:104000001043086004E09DF84B008DF84A00FFE77C
:10401000FFE79DF84A0016B080BD000080B586B06D
:1040200004900391049820B9FFE701208DF8170050
:104030003AE2039842F20001C4F20201096801F079
:104040000F01884216D9FFE742F20000C4F20200D5
:10405000016821F00F01039A11430160006800F02C
:104060000F000399884204D0FFE701208DF8170064
:104070001AE2FFE704980078C00600281BD5FFE786
:104080000498406940F62041C4F20241096801F4F5
:10409000E041B0EB112F0DD9FFE740F62041C4F20B
:1040A0000241086820F4E040049A526940EA022084
:1040B0000860FFE7FFE704980078000700281BD599
:1040C000FFE70498006940F62041C4F20241096804
:1040D00001F4E061B0EB111F0DD9FFE740F620417C
:1040E000C4F20241086820F4E060049A126940EAD0
:1040F00002100860FFE7FFE70498007840070028F7
:1041000019D5FFE70498C06840F62041C4F2024187
:10411000096801F0700188420CD9FFE740F62041A0
:10412000C4F20241086820F07000049AD26810437B
:104130000860FFE7FFE7049800788007002819D59A
:10414000FFE70498806840F62041C4F20241096804
:1041500001F00F0188420CD9FFE740F62041C4F27C
:104160000241086820F00F00049A9268104308602A
:10417000FFE7FFE704980078C007002800F0D1802F
:10418000FFE70498406803280ED1FFE740F600409F
:10419000C4F2024000688001002804D4FFE7012037
:1041A0008DF8170080E135E00498406802280ED1B0
:1041B000FFE740F60040C4F2024000688003002898
:1041C00004D4FFE701208DF817006DE121E0049889
:1041D000406801280ED1FFE740F60040C4F20240DB
:1041E00000688005002804D4FFE701208DF817003F
:1041F0005AE10DE040F60040C4F20240006880073A
:10420000002804D4FFE701208DF817004CE1FFE7F8
:10421000FFE7FFE740F61C41C4F20241086820F0C6
:104220000300049A526810430860FDF753F90190A7
:104230000498406803281AD1FFE7FFE740F61C40C6
:10424000C4F20240006800F0180018280ED0FFE702
:10425000FDF740F90199401A41F28931884204D3AF
:10426000FFE703208DF817001EE1E7E758E0049808
:10427000406802281AD1FFE7FFE740F61C40C4F26D
:104280000240006800F0180010280ED0FFE7FDF78C
:1042900021F90199401A41F28931884204D3FFE79C
:1042A00003208DF81700FFE0E7E738E00498406846
:1042B00001281AD1FFE7FFE740F61C40C4F2024094
:1042C000006800F0180008280ED0FFE7FDF702F99B
:1042D0000199401A41F28931884204D3FFE7032053
:1042E0008DF81700E0E0E7E718E0FFE740F61C4034
:1042F000C4F20240006810F0180F0ED0FFE7FDF77F
:10430000E9F80199401A41F28931884204D3FFE764
:1043100003208DF81700C7E0E8E7FFE7FFE7FFE7B6
:10432000FFE7049800788007002819D5FFE7049874
:10433000806840F62041C4F20241096801F00F0193
:1043400088420CD2FFE740F62041C4F202410868DF
:1043500020F00F00049A926810430860FFE7FFE71F
:10436000039842F20001C4F20201096801F00F0152
:10437000884216D2FFE742F20000C4F20200016850
:1043800021F00F01039A11430160006800F00F0053
:104390000399884204D0FFE701208DF8170083E0DD
:1043A000FFE7049800784007002819D5FFE7049834
:1043B000C06840F62041C4F20241096801F0700172
:1043C00088420CD2FFE740F62041C4F2024108685F
:1043D00020F07000049AD26810430860FFE7FFE7FE
:1043E00004980078000700281BD5FFE704980069AF
:1043F00040F62041C4F20241096801F4E061B0EBEB
:10440000111F0DD2FFE740F62041C4F202410868B7
:1044100020F4E060049A126940EA02100860FFE7A5
:10442000FFE704980078C00600281BD5FFE7049832
:10443000406940F62041C4F20241096801F4E041BC
:10444000B0EB112F0DD2FFE740F62041C4F202413C
:10445000086820F4E040049A526940EA02200860AB
:10446000FFE7FFE700F07AF840F62041C4F202418E
:10447000096801F00F024DF65C21C0F60001895C6D
:10448000C84040F28C01C2F20001086040F2F01016
:10449000C2F200000068FDF7C1FC8DF80B009DF82A
:1044A0000B008DF81700FFE79DF8170006B080BDE0
:1044B00080B500F053F840F62041C4F2024109688B
:1044C00001F00F024DF65C21C0F60001895C01F09D
:1044D0001F0120FA01F140F28C00C2F200000160DD
:1044E000006880BD80B5FFF7E3FF40F62041C4F2CD
:1044F00002410968C1F302124DF66C21C0F60001B9
:10450000895C01F01F01C84080BD000080B5FFF745
:10451000CFFF40F62041C4F202410968C1F30222F4
:104520004DF66C21C0F60001895C01F01F01C84006
:1045300080BD000080B5FFF7BBFF40F62041C4F20C
:1045400002410968C1F302324DF66C21C0F6000148
:10455000895C01F01F01C84080BD000089B040F6B1
:104560001C40C4F20240006800F01800082806D180
:10457000FFE740F60010C0F23D00049048E140F62D
:104580001C40C4F20240006810F0180F21D1FFE770
:1045900040F60040C4F20240006800F02001002014
:1045A000B0EB511F0ED0FFE740F60040C4F20240CE
:1045B0000068C0F3C10149F20000C0F2D030C84029
:1045C000049005E049F20000C0F2D0300490FFE70B
:1045D0001DE140F61C40C4F20240006800F01800E3
:1045E000102806D1FFE747F64000C0F27D10049086
:1045F0000CE140F61C40C4F20240006800F01800D4
:10460000182840F0FC80FFE740F62840C4F2024042
:10461000016801F0030108910168C1F305210691C9
:104620000068C0F300100590059840F63841C4F2C8
:104630000241096889B2C90800FB01F000EE100AC6
:10464000B8EE400A8DED020A0698002800F0D380EB
:10465000FFE708980090012809D0FFE7009802289A
:1046600000F08D80FFE70098032864D088E040F6D2
:104670000040C4F20240006800F020010020B0EBCE
:10468000511F33D0FFE740F60040C4F202400068FB
:10469000C0F3C10149F20000C0F2D030C84003901D
:1046A0009DED030AB8EE400A9DED061AB8EE411AD8
:1046B00080EE010A40F63440C4F2024000686FF315
:1046C0005F2001EE100AB8EE411A9DED022A9FED1F
:1046D000533A22EE032A31EE021AB7EE002A31EEE7
:1046E000021A20EE010A8DED010A23E09DED060A73
:1046F000B8EE401A9FED4A0A80EE010A40F63440B7
:10470000C4F2024000686FF35F2001EE100AB8EEB9
:10471000411A9DED022A9FED413A22EE032A31EE25
:10472000021AB7EE002A31EE021A20EE010A8DEDD0
:10473000010AFFE748E09DED060AB8EE401A9FED3A
:10474000360A80EE010A40F63440C4F202400068A6
:104750006FF35F2001EE100AB8EE411A9DED022AB8
:104760009FED2E3A22EE032A31EE021AB7EE002A0E
:1047700031EE021A20EE010A8DED010A24E0FFE776
:104780009DED060AB8EE401A9FED260A80EE010A5A
:1047900040F63440C4F2024000686FF35F2001EE3F
:1047A000100AB8EE411A9DED022A9FED1C3A22EE46
:1047B000032A31EE021AB7EE002A31EE021A20EE79
:1047C000010A8DED010AFFE740F63440C4F20240D1
:1047D000006881B2012000EB512007909DED010A95
:1047E0009DED071AB8EE411A80EE010ABCEEC00A30
:1047F0008DED040A02E000200490FFE705E049F295
:104800000000C0F2D0300490FFE7FFE7FFE7FFE7CA
:10481000049809B0704700BF20BCBE4B00000039AF
:104820000024744C0024744A80B588B00690069821
:1048300028B9FFE701208DF81F0000F0EFBC40F61B
:104840001C40C4F20240006800F01800049040F6DA
:104850002840C4F20240006800F00300039006986C
:104860000078C006002840F18080FFE704980828FF
:1048700008D0FFE7049818281DD1FFE70398022805
:1048800019D1FFE70698C06928B9FFE701208DF824
:104890001F0000F0C3BCFFE740F61841C4F202411C
:1048A000086820F47C10069A126A40EA0240086008
:1048B000FFE7FFE758E00698C06988B3FFE740F6D6
:1048C0000041C4F20241086840F480700860FCF7BF
:1048D00001FE0590FFE740F60040C4F20240006888
:1048E000800500280DD4FFE7FCF7F4FD0599401A78
:1048F000032805D3FFE703208DF81F0000F08EBCCE
:10490000E9E7FFE740F61841C4F20241086820F4E5
:104910007C10069A126A40EA02400860FFE722E033
:1049200040F60041C4F20241086820F4807008603B
:10493000FCF7D0FD0590FFE740F60040C4F20240CE
:104940000068800500280DD5FFE7FCF7C3FD059939
:10495000401A032805D3FFE703208DF81F0000F05D
:104960005DBCE9E7FFE7FFE7FFE706980078C007CF
:10497000002800F0B980FFE70498102808D0FFE76E
:10498000049818280ED1FFE7039803280AD1FFE7FF
:104990000698406828B9FFE701208DF81F0000F055
:1049A0003DBCA0E0FFE706984068B0F5803F09D124
:1049B000FFE740F60041C4F20241086840F480304D
:1049C000086056E00698406888B9FFE740F6004165
:1049D000C4F20241086820F480300860086820F4BE
:1049E00080100860086820F48020086040E0069885
:1049F0004068B0F5A02F11D1FFE740F60041C4F2A6
:104A00000241086840F480200860086820F48010A3
:104A10000860086840F48030086028E00698406824
:104A2000B0F5A81F11D1FFE740F60041C4F20241E2
:104A3000086840F480200860086840F4801008602E
:104A4000086840F48030086010E040F60041C4F28D
:104A50000241086820F480300860086820F4802053
:104A60000860086820F480100860FFE7FFE7FFE7B0
:104A7000FFE7FFE706984068D0B1FFE7FCF72AFDA3
:104A80000590FFE740F60040C4F202400068800352
:104A900000280CD4FFE7FCF71DFD0599401A652896
:104AA00004D3FFE703208DF81F00B7E3EAE719E01E
:104AB000FCF710FD0590FFE740F60040C4F202400D
:104AC0000068800300280CD5FFE7FCF703FD05997B
:104AD000401A652804D3FFE703208DF81F009DE3EB
:104AE000EAE7FFE7FFE7FFE706980078800700287E
:104AF00040F1C380FFE7049840B1FFE7049818280D
:104B00005ED1FFE7039801285AD1FFE70698C068F5
:104B100020B9FFE701208DF81F007FE3049840BB18
:104B2000FFE740F60040C4F20240006800F01800C1
:104B30000699096988421BD0FFE740F60041C4F29C
:104B40000241086820F01800069A126910430860B4
:104B5000FFF7AEFC40F2F010C2F200000068FDF773
:104B60005DF920B1FFE701208DF81F0056E3FFE754
:104B7000FFE7FCF7AFFC0590FFE740F60040C4F20A
:104B800002400068800700280CD4FFE7FCF7A2FC75
:104B90000599401A032804D3FFE703208DF81F006E
:104BA0003CE3EAE740F61041C4F20241086820F411
:104BB000FE00069A526940EA02400860FFE75BE0A7
:104BC0000698C068A8B3FFE740F60041C4F202416E
:104BD000086820F01800069A1269104308600868F7
:104BE00040F001000860FCF775FC0590FFE740F617
:104BF0000040C4F202400068800700280CD4FFE7A0
:104C0000FCF768FC0599401A032804D3FFE703204A
:104C10008DF81F0002E3EAE740F61041C4F20241BA
:104C2000086820F4FE00069A526940EA02400860D3
:104C300021E040F60041C4F20241086820F0010082
:104C40000860FCF747FC0590FFE740F60040C4F21F
:104C500002400068800700280CD5FFE7FCF73AFC0B
:104C60000599401A032804D3FFE703208DF81F009D
:104C7000D4E2EAE7FFE7FFE7FFE7069800780007DE
:104C8000002849D5FFE70698806910B3FFE740F692
:104C9000F041C4F20241086840F080600860FCF70F
:104CA00019FC0590FFE740F6F040C4F202400068AE
:104CB000000100280CD4FFE7FCF70CFC0599401A12
:104CC000032804D3FFE703208DF81F00A6E2EAE7DC
:104CD00021E040F6F041C4F20241086820F0806013
:104CE0000860FCF7F7FB0590FFE740F6F040C4F2E0
:104CF00002400068000100280CD5FFE7FCF7EAFB42
:104D00000599401A032804D3FFE703208DF81F00FC
:104D100084E2EAE7FFE7FFE706980078400700280B
:104D200040F1CC80FFE740F62400C4F20240006866
:104D3000C00708BBFFE740F62401C4F2024108683F
:104D400040F001000860FCF7C5FB0590FFE740F666
:104D50002400C4F202400068C00760B9FFE7FCF716
:104D6000B9FB0599401A032804D3FFE703208DF807
:104D70001F0053E2EBE7FFE7FFE706988068012892
:104D800009D1FFE740F6F041C4F20241086840F063
:104D90000100086054E00698806888B9FFE740F693
:104DA000F041C4F20241086820F001000860086880
:104DB00020F080000860086820F0040008603EE0F1
:104DC00006988068052811D1FFE740F6F041C4F24B
:104DD0000241086840F004000860086820F0800084
:104DE0000860086840F00100086027E006988068C5
:104DF000852811D1FFE740F6F041C4F2024108686E
:104E000040F004000860086840F08000086008680E
:104E100040F00100086010E040F6F041C4F20241A9
:104E2000086820F001000860086820F004000860AD
:104E3000086820F080000860FFE7FFE7FFE7FFE772
:104E4000FFE706988068E0B1FFE7FCF743FB0590B9
:104E5000FFE740F6F040C4F20240006880070028F7
:104E60000ED4FFE7FCF736FB0599401A41F2893171
:104E7000884204D3FFE703208DF81F00CEE1E8E766
:104E80001BE0FCF727FB0590FFE740F6F040C4F27B
:104E900002400068800700280ED5FFE7FCF71AFBE8
:104EA0000599401A41F28931884204D3FFE7032073
:104EB0008DF81F00B2E1E8E7FFE7FFE7069800780A
:104EC0008006002849D5FFE70698406A10B3FFE73F
:104ED00040F60041C4F20241086840F48050086086
:104EE000FCF7F8FA0590FFE740F60040C4F20240F4
:104EF0000068800400280CD4FFE7FCF7EBFA059962
:104F0000401A032804D3FFE703208DF81F0085E132
:104F1000EAE721E040F60041C4F20241086820F4CB
:104F200080500860FCF7D6FA0590FFE740F6004095
:104F3000C4F202400068800400280CD5FFE7FCF7AB
:104F4000C9FA0599401A032804D3FFE703208DF816
:104F50001F0063E1EAE7FFE7FFE70698806A0028A1
:104F600000F05881FFE70498182800F0D580FFE78B
:104F70000698806A022840F0A180FFE740F60041D1
:104F8000C4F20241086820F080700860FCF7A2FAC1
:104F90000590FFE740F60040C4F20240006880013F
:104FA00000280CD5FFE7FCF795FA0599401A03286D
:104FB00004D3FFE703208DF81F002FE1EAE7FFE7A6
:104FC00040F62841C4F20241086843F60372904358
:104FD000069BDA6A1B6B42EA0322104308600699BB
:104FE000486BD1F838C0CB6B0A6C01386FF35F2087
:104FF0004FF60061CFF6FF7101EB4C2189B20844F6
:105000000021CFF6FF7101EB034101F4FE010844DA
:105010004FF07F4101EB026101F0FE41084440F690
:105020003441C4F202410860FFE740F62841C4F26F
:1050300002410091086820F0100008600698C06CDA
:10504000C00040F63842C4F202421060086840F0E6
:1050500010000860086820F00C00069A526C10439B
:105060000860086820F02000069A926C10430860DF
:10507000086840F48030086040F60041C4F2024104
:10508000086840F080700860FCF724FA0590FFE79C
:1050900040F60040C4F202400068800100280CD4B1
:1050A000FFE7FCF717FA0599401A032804D3FFE736
:1050B00003208DF81F00B1E0EAE72CE040F6004144
:1050C000C4F20241086820F080700860FCF702FA20
:1050D0000590FFE740F60040C4F2024000688001FE
:1050E00000280CD5FFE7FCF7F5F90599401A0328CD
:1050F00004D3FFE703208DF81F008FE0EAE740F6B6
:105100002841C4F2024108684FF6FC72CFF6F872EB
:1051100010400860FFE77CE040F62840C4F20240FF
:105120000068029040F63440C4F2024000680190EA
:105130000698806A012837D0FFE7029800F0030044
:105140000699C96A88422FD1FFE7029800F47C5182
:105150000698006BB0EB112F26D1FFE701986FF393
:105160005F200699496B013988421DD1FFE7BDF8E0
:1051700004100698806B0138B0EB512F14D1FFE773
:10518000019800F4FE010698C06B0138B0EB114F96
:105190000AD1FFE7019800F0FE410698006C013843
:1051A000B0EB116F04D0FFE701208DF81F0035E050
:1051B00040F63840C4F20240006881B20698C06CE4
:1051C000B0EBD10F24D0FFE740F62841C4F20241F2
:1051D000086820F010000860FCF77CF90590FFE7F4
:1051E000FCF778F90599401A08B9FFE7F8E706983F
:1051F000C06CC00040F63841C4F20241086040F67D
:105200002841C4F20241086840F010000860FFE73E
:10521000FFE7FFE700208DF81F00FFE79DF81F0064
:1052200008B080BD82B0019000910099086849687B
:10523000084347F61C01C4F20041086000998868E1
:10524000CA6889691043084347F62441C4F2004103
:10525000086047F62041C4F20041086820F0FF10C2
:10526000009B1A695B6942EA034210430860002010
:1052700002B0704780B582B0019001208DF8030024
:105280000198002800F09080FFE7019890F82D0029
:1052900040B9FFE70199002081F82C00019800F047
:1052A00087F8FFE70199022081F82D0047F60C00EE
:1052B000C4F20040006800F010010020B0EB111FA4
:1052C00064D1FFE7FFE747F62401C4F20041CA209A
:1052D000086053200860FFE7019804F0B3FD8DF8E3
:1052E00003009DF80300002847D1FFE747F61801A7
:1052F000C4F2004108684FF6BF72CFF68F321040FB
:105300000860019A5068136992691843024308685B
:105310001043086001988168C06840EA014047F680
:105320001001C4F20041086047F60C01C4F20041CC
:10533000086820F4F850019B5A6A9B6A1A4310438C
:105340000860019804F0D0FD8DF803009DF803007B
:1053500090B9FFE747F61801C4F20041086820F051
:105360006040019A5369D2F81CC0126A42EA0C02EA
:105370001A4310430860FFE7FFE7FFE747F6240101
:10538000C4F20041FF200860FFE703E000208DF831
:105390000300FFE79DF8030028B9FFE7019901200A
:1053A00081F82D00FFE7FFE79DF8030002B080BD04
:1053B00080B5A6B0259002A88821FAF7B5FF2598F8
:1053C000006847F60001C4F20041884228D1FFE797
:1053D000002003904FF0007002904FF40070209076
:1053E00002A8FEF7CDF818B1FFE7FBF719FBFFE7BE
:1053F00040F6F041C4F20241086840F40040086001
:10540000FFE740F6A840C4F20240016841F40011F1
:105410000160006800F4001001900198FFE7FFE7C9
:1054200026B080BD80B584B0029047F60C01C4F26E
:105430000041086820F020000860FCF74BF801905C
:10544000FFE747F60C00C4F2004000688006002821
:105450001AD4FFE7FCF73EF80199401AB0F57A7FBD
:1054600011D9FFE747F60C00C4F20040006880063F
:10547000002807D4FFE70299032081F82D008DF85A
:105480000F0005E000E0DCE700208DF80F00FFE7EB
:105490009DF80F0004B080BD82B00190019800908B
:1054A000042843D80099DFE801F00C1D2F410300C8
:1054B0004EF21001CEF20001086840F004000860CE
:1054C00035E04EF21001CEF20001086820F0040031
:1054D000086040F6E441C4F20241086820F00C0084
:1054E000086024E04EF21001CEF20001086820F0BE
:1054F0000400086040F6E441C4F202410868012259
:1055000062F38300086012E04EF21001CEF2000157
:10551000086820F00400086040F6E441C4F202414B
:105520000868022262F38300086000E0FFE702B02F
:105530007047000040F2E430C2F20000016801311F
:10554000016040F2EC32C2F20002116801311160D8
:1055500040F2E032C2F2000211680131116040F203
:10556000DC32C2F2000211680131116040F2E8320F
:10557000C2F20002116801311160006801280DDBE0
:10558000FFE740F2BC31C2F200010120086040F2A6
:10559000E431C2F2000100200860FFE740F2EC3085
:1055A000C2F20000006805280DDBFFE740F2C431BD
:1055B000C2F200010120086040F2EC31C2F20001A9
:1055C00000200860FFE740F2E030C2F2000000680F
:1055D0000A280DDBFFE740F2B831C2F200010120DA
:1055E000086040F2E031C2F2000100200860FFE7ED
:1055F00040F2DC30C2F20000006864280DDBFFE7F7
:1056000040F2B431C2F200010120086040F2DC3106
:10561000C2F2000100200860FFE740F2E830C2F269
:1056200000000068B0F57A7F0DDBFFE740F2C03183
:10563000C2F200010120086040F2E831C2F200012C
:1056400000200860FFE7704782B0009000980138A2
:10565000B0F1807F03D3FFE70120019016E00098AE
:1056600001384EF21401CEF2000108604EF218012A
:10567000CEF20001002008604EF21002CEF20002CD
:10568000116841F0030111600190FFE7019802B039
:105690007047000083B04EF21000CEF200000068A8
:1056A0004007002803D5FFE70420029020E040F6E1
:1056B000E440C4F20240006800F00C000190019840
:1056C000009040B1FFE70098042807D0FFE700985A
:1056D000082806D008E00020029008E0012002908F
:1056E00005E00220029002E000200290FFE7FFE7C1
:1056F000029803B07047000080B5FFF71BFF80BD24
:1057000083B00190FFE7019890F88400012804D14C
:10571000FFE702208DF80B002CE00199012081F8B1
:105720008400FFE7FFE701992420C1F88800019871
:1057300000680068009001980168086820F0010086
:105740000860009820F00050009001990020486601
:10575000009801990968086001992020C1F8880023
:10576000FFE70199002081F88400FFE700208DF811
:105770000B00FFE79DF80B0003B0704782B001906B
:10578000ADF8021002B0704781B0009001B07047D0
:1057900080B584B002900191FFE7029890F88400F0
:1057A000012804D1FFE702208DF80F0032E00299B2
:1057B000012081F88400FFE7FFE702992420C1F867
:1057C00088000298006800680090029801680868E4
:1057D00020F00100086002980068806820F0606096
:1057E00001990843029909688860029804F040FD15
:1057F000009802990968086002992020C1F8880081
:10580000FFE70299002081F88400FFE700208DF86F
:105810000F00FFE79DF80F0004B080BD80B584B095
:1058200002900191FFE7029890F88400012804D1CA
:10583000FFE702208DF80F0032E00299012081F885
:105840008400FFE7FFE702992420C1F8880002984E
:1058500000680068009002980168086820F0010064
:10586000086002980068806820F060400199084351
:10587000029909688860029804F0FAFC009802997D
:105880000968086002992020C1F88800FFE70299A2
:10589000002081F88400FFE700208DF80F00FFE76B
:1058A0009DF80F0004B080BD81B0009001B070473A
:1058B00081B0009001B0704780B584B0029002982A
:1058C00020B9FFE701208DF80F002FE00299242076
:1058D000C1F8880002980168086820F0010008609B
:1058E00002980168002001900860029909684860E8
:1058F000029909688860029800F018FB01980299E3
:10590000C1F890000299C1F888000299C1F88C0092
:105910000299C86602990867FFE70299002081F89A
:105920008400FFE700208DF80F00FFE79DF80F00CF
:1059300004B080BD81B0009001B0704780B58EB0DA
:105940000D900D980068C0690C900D980068006873
:105950000B900D98006880680A900C9840F60F0133
:10596000084009900998E0B9FFE79DF830008006EB
:10597000002815D5FFE79DF82C008006002806D4E6
:10598000FFE79DF82B00C006002809D5FFE70D981A
:10599000406F20B1FFE70D98416F8847FFE76CE249
:1059A000FFE70998002800F0F980FFE70A98012135
:1059B000C1F20001084209D1FFE70B9840F2201123
:1059C000C0F20041084200F0E980FFE79DF8300096
:1059D000C00788B1FFE79DF82D00C00760B1FFE761
:1059E0000D980168012008620D99D1F8900040F0EF
:1059F0000100C1F89000FFE79DF830008007002803
:105A000011D5FFE79DF82800C00760B1FFE70D98AA
:105A10000168022008620D99D1F8900040F004005E
:105A2000C1F89000FFE79DF830004007002811D52D
:105A3000FFE79DF82800C00760B1FFE70D980168F7
:105A4000042008620D99D1F8900040F00200C1F8DE
:105A50009000FFE79DF830000007002819D5FFE708
:105A60009DF82C008006002807D4FFE70A98012142
:105A7000C1F2000108420CD0FFE70D980168082030
:105A800008620D99D1F8900040F00800C1F890002C
:105A9000FFE79DF831000007002813D5FFE79DF8C8
:105AA0002F00400700280DD5FFE70D9801684FF43F
:105AB000006008620D99D1F8900040F02000C1F814
:105AC0009000FFE70D98D0F89000002865D0FFE720
:105AD0009DF830008006002815D5FFE79DF82C00C2
